{"abi":[{"type":"constructor","inputs":[{"name":"_livenessBondGwei","type":"uint48","internalType":"uint48"},{"name":"_provabilityBondGwei","type":"uint48","internalType":"uint48"},{"name":"_signalService","type":"address","internalType":"address"},{"name":"_pacayaForkHeight","type":"uint64","internalType":"uint64"},{"name":"_shastaForkHeight","type":"uint64","internalType":"uint64"},{"name":"_bondManager","type":"address","internalType":"address"}],"stateMutability":"nonpayable"},{"type":"function","name":"ANCHOR_GAS_LIMIT","inputs":[],"outputs":[{"name":"","type":"uint64","internalType":"uint64"}],"stateMutability":"view"},{"type":"function","name":"BASEFEE_MIN_VALUE","inputs":[],"outputs":[{"name":"","type":"uint256","internalType":"uint256"}],"stateMutability":"view"},{"type":"function","name":"GOLDEN_TOUCH_ADDRESS","inputs":[],"outputs":[{"name":"","type":"address","internalType":"address"}],"stateMutability":"view"},{"type":"function","name":"acceptOwnership","inputs":[],"outputs":[],"stateMutability":"nonpayable"},{"type":"function","name":"adjustExcess","inputs":[{"name":"_currGasExcess","type":"uint64","internalType":"uint64"},{"name":"_currGasTarget","type":"uint64","internalType":"uint64"},{"name":"_newGasTarget","type":"uint64","internalType":"uint64"}],"outputs":[{"name":"newGasExcess_","type":"uint64","internalType":"uint64"}],"stateMutability":"pure"},{"type":"function","name":"anchor","inputs":[{"name":"_l1BlockHash","type":"bytes32","internalType":"bytes32"},{"name":"_l1StateRoot","type":"bytes32","internalType":"bytes32"},{"name":"_l1BlockId","type":"uint64","internalType":"uint64"},{"name":"_parentGasUsed","type":"uint32","internalType":"uint32"}],"outputs":[],"stateMutability":"nonpayable"},{"type":"function","name":"anchorV2","inputs":[{"name":"_anchorBlockId","type":"uint64","internalType":"uint64"},{"name":"_anchorStateRoot","type":"bytes32","internalType":"bytes32"},{"name":"_parentGasUsed","type":"uint32","internalType":"uint32"},{"name":"_baseFeeConfig","type":"tuple","internalType":"struct OntakeAnchor.BaseFeeConfig","components":[{"name":"adjustmentQuotient","type":"uint8","internalType":"uint8"},{"name":"sharingPctg","type":"uint8","internalType":"uint8"},{"name":"gasIssuancePerSecond","type":"uint32","internalType":"uint32"},{"name":"minGasExcess","type":"uint64","internalType":"uint64"},{"name":"maxGasIssuancePerBlock","type":"uint32","internalType":"uint32"}]}],"outputs":[],"stateMutability":"nonpayable"},{"type":"function","name":"anchorV3","inputs":[{"name":"_anchorBlockId","type":"uint64","internalType":"uint64"},{"name":"_anchorStateRoot","type":"bytes32","internalType":"bytes32"},{"name":"_parentGasUsed","type":"uint32","internalType":"uint32"},{"name":"_baseFeeConfig","type":"tuple","internalType":"struct OntakeAnchor.BaseFeeConfig","components":[{"name":"adjustmentQuotient","type":"uint8","internalType":"uint8"},{"name":"sharingPctg","type":"uint8","internalType":"uint8"},{"name":"gasIssuancePerSecond","type":"uint32","internalType":"uint32"},{"name":"minGasExcess","type":"uint64","internalType":"uint64"},{"name":"maxGasIssuancePerBlock","type":"uint32","internalType":"uint32"}]},{"name":"_signalSlots","type":"bytes32[]","internalType":"bytes32[]"}],"outputs":[],"stateMutability":"nonpayable"},{"type":"function","name":"blockIdToEndOfSubmissionWindowTimeStamp","inputs":[{"name":"blockId","type":"uint256","internalType":"uint256"}],"outputs":[{"name":"endOfSubmissionWindowTimestamp","type":"uint256","internalType":"uint256"}],"stateMutability":"view"},{"type":"function","name":"bondManager","inputs":[],"outputs":[{"name":"","type":"address","internalType":"contract IBondManager"}],"stateMutability":"view"},{"type":"function","name":"calculateBaseFee","inputs":[{"name":"_baseFeeConfig","type":"tuple","internalType":"struct OntakeAnchor.BaseFeeConfig","components":[{"name":"adjustmentQuotient","type":"uint8","internalType":"uint8"},{"name":"sharingPctg","type":"uint8","internalType":"uint8"},{"name":"gasIssuancePerSecond","type":"uint32","internalType":"uint32"},{"name":"minGasExcess","type":"uint64","internalType":"uint64"},{"name":"maxGasIssuancePerBlock","type":"uint32","internalType":"uint32"}]},{"name":"_blocktime","type":"uint64","internalType":"uint64"},{"name":"_parentGasExcess","type":"uint64","internalType":"uint64"},{"name":"_parentGasUsed","type":"uint32","internalType":"uint32"}],"outputs":[{"name":"basefee_","type":"uint256","internalType":"uint256"},{"name":"parentGasExcess_","type":"uint64","internalType":"uint64"}],"stateMutability":"pure"},{"type":"function","name":"getBasefee","inputs":[{"name":"_anchorBlockId","type":"uint64","internalType":"uint64"},{"name":"_parentGasUsed","type":"uint32","internalType":"uint32"}],"outputs":[{"name":"basefee_","type":"uint256","internalType":"uint256"},{"name":"parentGasExcess_","type":"uint64","internalType":"uint64"}],"stateMutability":"pure"},{"type":"function","name":"getBasefeeV2","inputs":[{"name":"_parentGasUsed","type":"uint32","internalType":"uint32"},{"name":"_blockTimestamp","type":"uint64","internalType":"uint64"},{"name":"_baseFeeConfig","type":"tuple","internalType":"struct OntakeAnchor.BaseFeeConfig","components":[{"name":"adjustmentQuotient","type":"uint8","internalType":"uint8"},{"name":"sharingPctg","type":"uint8","internalType":"uint8"},{"name":"gasIssuancePerSecond","type":"uint32","internalType":"uint32"},{"name":"minGasExcess","type":"uint64","internalType":"uint64"},{"name":"maxGasIssuancePerBlock","type":"uint32","internalType":"uint32"}]}],"outputs":[{"name":"basefee_","type":"uint256","internalType":"uint256"},{"name":"newGasTarget_","type":"uint64","internalType":"uint64"},{"name":"newGasExcess_","type":"uint64","internalType":"uint64"}],"stateMutability":"view"},{"type":"function","name":"getBlockHash","inputs":[{"name":"_blockId","type":"uint256","internalType":"uint256"}],"outputs":[{"name":"blockHash_","type":"bytes32","internalType":"bytes32"}],"stateMutability":"view"},{"type":"function","name":"getDesignatedProver","inputs":[{"name":"_proposalId","type":"uint48","internalType":"uint48"},{"name":"_proposer","type":"address","internalType":"address"},{"name":"_proverAuth","type":"bytes","internalType":"bytes"}],"outputs":[{"name":"isLowBondProposal_","type":"bool","internalType":"bool"},{"name":"designatedProver_","type":"address","internalType":"address"},{"name":"provingFeeToTransfer_","type":"uint256","internalType":"uint256"}],"stateMutability":"view"},{"type":"function","name":"getState","inputs":[],"outputs":[{"name":"","type":"tuple","internalType":"struct ShastaAnchor.State","components":[{"name":"bondInstructionsHash","type":"bytes32","internalType":"bytes32"},{"name":"anchorBlockNumber","type":"uint48","internalType":"uint48"},{"name":"designatedProver","type":"address","internalType":"address"},{"name":"isLowBondProposal","type":"bool","internalType":"bool"},{"name":"endOfSubmissionWindowTimestamp","type":"uint48","internalType":"uint48"}]}],"stateMutability":"view"},{"type":"function","name":"impl","inputs":[],"outputs":[{"name":"","type":"address","internalType":"address"}],"stateMutability":"view"},{"type":"function","name":"inNonReentrant","inputs":[],"outputs":[{"name":"","type":"bool","internalType":"bool"}],"stateMutability":"view"},{"type":"function","name":"init","inputs":[{"name":"_owner","type":"address","internalType":"address"},{"name":"_l1ChainId","type":"uint64","internalType":"uint64"},{"name":"_initialGasExcess","type":"uint64","internalType":"uint64"}],"outputs":[],"stateMutability":"nonpayable"},{"type":"function","name":"l1ChainId","inputs":[],"outputs":[{"name":"","type":"uint64","internalType":"uint64"}],"stateMutability":"view"},{"type":"function","name":"lastAnchorGasUsed","inputs":[],"outputs":[{"name":"","type":"uint32","internalType":"uint32"}],"stateMutability":"view"},{"type":"function","name":"lastCheckpoint","inputs":[],"outputs":[{"name":"","type":"uint64","internalType":"uint64"}],"stateMutability":"view"},{"type":"function","name":"livenessBondGwei","inputs":[],"outputs":[{"name":"","type":"uint48","internalType":"uint48"}],"stateMutability":"view"},{"type":"function","name":"owner","inputs":[],"outputs":[{"name":"","type":"address","internalType":"address"}],"stateMutability":"view"},{"type":"function","name":"pacayaForkHeight","inputs":[],"outputs":[{"name":"","type":"uint64","internalType":"uint64"}],"stateMutability":"view"},{"type":"function","name":"parentGasExcess","inputs":[],"outputs":[{"name":"","type":"uint64","internalType":"uint64"}],"stateMutability":"view"},{"type":"function","name":"parentGasTarget","inputs":[],"outputs":[{"name":"","type":"uint64","internalType":"uint64"}],"stateMutability":"view"},{"type":"function","name":"parentTimestamp","inputs":[],"outputs":[{"name":"","type":"uint64","internalType":"uint64"}],"stateMutability":"view"},{"type":"function","name":"pause","inputs":[],"outputs":[],"stateMutability":"nonpayable"},{"type":"function","name":"paused","inputs":[],"outputs":[{"name":"","type":"bool","internalType":"bool"}],"stateMutability":"view"},{"type":"function","name":"pendingOwner","inputs":[],"outputs":[{"name":"","type":"address","internalType":"address"}],"stateMutability":"view"},{"type":"function","name":"provabilityBondGwei","inputs":[],"outputs":[{"name":"","type":"uint48","internalType":"uint48"}],"stateMutability":"view"},{"type":"function","name":"proxiableUUID","inputs":[],"outputs":[{"name":"","type":"bytes32","internalType":"bytes32"}],"stateMutability":"view"},{"type":"function","name":"publicInputHash","inputs":[],"outputs":[{"name":"","type":"bytes32","internalType":"bytes32"}],"stateMutability":"view"},{"type":"function","name":"renounceOwnership","inputs":[],"outputs":[],"stateMutability":"nonpayable"},{"type":"function","name":"resolver","inputs":[],"outputs":[{"name":"","type":"address","internalType":"address"}],"stateMutability":"view"},{"type":"function","name":"shastaForkHeight","inputs":[],"outputs":[{"name":"","type":"uint64","internalType":"uint64"}],"stateMutability":"view"},{"type":"function","name":"signalService","inputs":[],"outputs":[{"name":"","type":"address","internalType":"contract ISignalService"}],"stateMutability":"view"},{"type":"function","name":"skipFeeCheck","inputs":[],"outputs":[{"name":"skipCheck_","type":"bool","internalType":"bool"}],"stateMutability":"pure"},{"type":"function","name":"transferOwnership","inputs":[{"name":"newOwner","type":"address","internalType":"address"}],"outputs":[],"stateMutability":"nonpayable"},{"type":"function","name":"unpause","inputs":[],"outputs":[],"stateMutability":"nonpayable"},{"type":"function","name":"updateState","inputs":[{"name":"_proposalId","type":"uint48","internalType":"uint48"},{"name":"_proposer","type":"address","internalType":"address"},{"name":"_proverAuth","type":"bytes","internalType":"bytes"},{"name":"_bondInstructionsHash","type":"bytes32","internalType":"bytes32"},{"name":"_bondInstructions","type":"tuple[]","internalType":"struct LibBonds.BondInstruction[]","components":[{"name":"proposalId","type":"uint48","internalType":"uint48"},{"name":"bondType","type":"uint8","internalType":"enum LibBonds.BondType"},{"name":"payer","type":"address","internalType":"address"},{"name":"payee","type":"address","internalType":"address"}]},{"name":"_blockIndex","type":"uint16","internalType":"uint16"},{"name":"_anchorBlockNumber","type":"uint48","internalType":"uint48"},{"name":"_anchorBlockHash","type":"bytes32","internalType":"bytes32"},{"name":"_anchorStateRoot","type":"bytes32","internalType":"bytes32"},{"name":"_endOfSubmissionWindowTimestamp","type":"uint48","internalType":"uint48"}],"outputs":[{"name":"previousState_","type":"tuple","internalType":"struct ShastaAnchor.State","components":[{"name":"bondInstructionsHash","type":"bytes32","internalType":"bytes32"},{"name":"anchorBlockNumber","type":"uint48","internalType":"uint48"},{"name":"designatedProver","type":"address","internalType":"address"},{"name":"isLowBondProposal","type":"bool","internalType":"bool"},{"name":"endOfSubmissionWindowTimestamp","type":"uint48","internalType":"uint48"}]},{"name":"newState_","type":"tuple","internalType":"struct ShastaAnchor.State","components":[{"name":"bondInstructionsHash","type":"bytes32","internalType":"bytes32"},{"name":"anchorBlockNumber","type":"uint48","internalType":"uint48"},{"name":"designatedProver","type":"address","internalType":"address"},{"name":"isLowBondProposal","type":"bool","internalType":"bool"},{"name":"endOfSubmissionWindowTimestamp","type":"uint48","internalType":"uint48"}]}],"stateMutability":"nonpayable"},{"type":"function","name":"upgradeTo","inputs":[{"name":"newImplementation","type":"address","internalType":"address"}],"outputs":[],"stateMutability":"nonpayable"},{"type":"function","name":"upgradeToAndCall","inputs":[{"name":"newImplementation","type":"address","internalType":"address"},{"name":"data","type":"bytes","internalType":"bytes"}],"outputs":[],"stateMutability":"payable"},{"type":"function","name":"withdraw","inputs":[{"name":"_token","type":"address","internalType":"address"},{"name":"_to","type":"address","internalType":"address"}],"outputs":[],"stateMutability":"nonpayable"},{"type":"event","name":"AdminChanged","inputs":[{"name":"previousAdmin","type":"address","indexed":false,"internalType":"address"},{"name":"newAdmin","type":"address","indexed":false,"internalType":"address"}],"anonymous":false},{"type":"event","name":"Anchored","inputs":[{"name":"parentHash","type":"bytes32","indexed":false,"internalType":"bytes32"},{"name":"parentGasExcess","type":"uint64","indexed":false,"internalType":"uint64"}],"anonymous":false},{"type":"event","name":"BeaconUpgraded","inputs":[{"name":"beacon","type":"address","indexed":true,"internalType":"address"}],"anonymous":false},{"type":"event","name":"EIP1559Update","inputs":[{"name":"oldGasTarget","type":"uint64","indexed":false,"internalType":"uint64"},{"name":"newGasTarget","type":"uint64","indexed":false,"internalType":"uint64"},{"name":"oldGasExcess","type":"uint64","indexed":false,"internalType":"uint64"},{"name":"newGasExcess","type":"uint64","indexed":false,"internalType":"uint64"},{"name":"basefee","type":"uint256","indexed":false,"internalType":"uint256"}],"anonymous":false},{"type":"event","name":"Initialized","inputs":[{"name":"version","type":"uint8","indexed":false,"internalType":"uint8"}],"anonymous":false},{"type":"event","name":"OwnershipTransferStarted","inputs":[{"name":"previousOwner","type":"address","indexed":true,"internalType":"address"},{"name":"newOwner","type":"address","indexed":true,"internalType":"address"}],"anonymous":false},{"type":"event","name":"OwnershipTransferred","inputs":[{"name":"previousOwner","type":"address","indexed":true,"internalType":"address"},{"name":"newOwner","type":"address","indexed":true,"internalType":"address"}],"anonymous":false},{"type":"event","name":"Paused","inputs":[{"name":"account","type":"address","indexed":false,"internalType":"address"}],"anonymous":false},{"type":"event","name":"Unpaused","inputs":[{"name":"account","type":"address","indexed":false,"internalType":"address"}],"anonymous":false},{"type":"event","name":"Upgraded","inputs":[{"name":"implementation","type":"address","indexed":true,"internalType":"address"}],"anonymous":false},{"type":"event","name":"Withdrawn","inputs":[{"name":"token","type":"address","indexed":false,"internalType":"address"},{"name":"to","type":"address","indexed":false,"internalType":"address"},{"name":"amount","type":"uint256","indexed":false,"internalType":"uint256"}],"anonymous":false},{"type":"error","name":"ACCESS_DENIED","inputs":[]},{"type":"error","name":"BlockHashAlreadySet","inputs":[]},{"type":"error","name":"BondInstructionsHashMismatch","inputs":[]},{"type":"error","name":"ETH_TRANSFER_FAILED","inputs":[]},{"type":"error","name":"FUNC_NOT_IMPLEMENTED","inputs":[]},{"type":"error","name":"INVALID_PAUSE_STATUS","inputs":[]},{"type":"error","name":"InvalidAnchorBlockNumber","inputs":[]},{"type":"error","name":"InvalidBlockIndex","inputs":[]},{"type":"error","name":"InvalidForkHeight","inputs":[]},{"type":"error","name":"L2_BASEFEE_MISMATCH","inputs":[]},{"type":"error","name":"L2_DEPRECATED_METHOD","inputs":[]},{"type":"error","name":"L2_FORK_ERROR","inputs":[]},{"type":"error","name":"L2_INVALID_L1_CHAIN_ID","inputs":[]},{"type":"error","name":"L2_INVALID_L2_CHAIN_ID","inputs":[]},{"type":"error","name":"L2_INVALID_SENDER","inputs":[]},{"type":"error","name":"L2_PUBLIC_INPUT_HASH_MISMATCH","inputs":[]},{"type":"error","name":"L2_TOO_LATE","inputs":[]},{"type":"error","name":"NonZeroAnchorBlockHash","inputs":[]},{"type":"error","name":"NonZeroAnchorStateRoot","inputs":[]},{"type":"error","name":"NonZeroBlockIndex","inputs":[]},{"type":"error","name":"ProposalIdMismatch","inputs":[]},{"type":"error","name":"ProposerMismatch","inputs":[]},{"type":"error","name":"REENTRANT_CALL","inputs":[]},{"type":"error","name":"SAME_SLOT_SIGNALS_NO_LONG_SUPPORTED","inputs":[]},{"type":"error","name":"ZERO_ADDRESS","inputs":[]},{"type":"error","name":"ZERO_VALUE","inputs":[]},{"type":"error","name":"ZeroBlockCount","inputs":[]}],"bytecode":{"object":"0x61018060405230608052348015610014575f5ffd5b50604051614021380380614021833981016040819052610033916101d7565b8585858585858383836100446100d5565b6001600160a01b0390921660c0526001600160401b0390811660e05290811661010052821615806100865750826001600160401b0316826001600160401b0316115b6100a357604051630174792f60e11b815260040160405180910390fd5b65ffffffffffff95861661012052939094166101405250506001600160a01b0316610160525061024795505050505050565b5f54610100900460ff16156101405760405162461bcd60e51b815260206004820152602760248201527f496e697469616c697a61626c653a20636f6e747261637420697320696e697469604482015266616c697a696e6760c81b606482015260840160405180910390fd5b5f5460ff9081161461018f575f805460ff191660ff9081179091556040519081527f7f26b83ff96e1f2b6a682f133852f6798a09c465da95921460cefb38474024989060200160405180910390a15b565b805165ffffffffffff811681146101a6575f5ffd5b919050565b80516001600160a01b03811681146101a6575f5ffd5b80516001600160401b03811681146101a6575f5ffd5b5f5f5f5f5f5f60c087890312156101ec575f5ffd5b6101f587610191565b955061020360208801610191565b9450610211604088016101ab565b935061021f606088016101c1565b925061022d608088016101c1565b915061023b60a088016101ab565b90509295509295509295565b60805160a05160c05160e05161010051610120516101405161016051613d016103205f395f81816104370152818161149e015281816115340152818161190c015281816119d9015281816123e8015261248001525f81816105cc015261238601525f818161069f015261234201525f818161091f01528181610c0201528181610c2b015261138b01525f81816107c30152610bb001525f8181610571015281816116010152611e4001525f61027c01525f81816109d501528181610a1e01528181610cc801528181610d080152610d830152613d015ff3fe60806040526004361061026a575f3560e01c80638abf60771161014a578063cbd9999e116100be578063ee82ac5e11610078578063ee82ac5e146108a3578063f2a49b00146108c2578063f2fde38b146108ef578063f37f28681461090e578063f940e38514610941578063fd85eb2d14610960575f5ffd5b8063cbd9999e146107fb578063d32e81a514610812578063da69d3db14610838578063dac5df7814610857578063e30c39781461086c578063e902461a14610889575f5ffd5b8063a7e022d11161010f578063a7e022d11461070c578063b2105fec14610748578063b310e9e914610774578063b8c7b30c14610793578063ba9f41e8146107b2578063c46e3a66146107e5575f5ffd5b80638abf60771461065d5780638da5cb5b146106715780639de746791461068e5780639ee512f2146106c1578063a7137c0f146106e6575f5ffd5b80634ef77eb5116101e157806362d09453116101a657806362d0945314610560578063715018a61461059357806379ba5097146105a757806379efb434146105bb5780638456cb5914610605578063893f546014610619575f5ffd5b80634ef77eb5146104ad5780634f1ef286146104e557806352d1902d146104f8578063539b8ade1461051a5780635c975abb14610540575f5ffd5b80632f980473116102325780632f980473146103f45780633075db5614610412578063363cc427146104265780633659cfe6146104595780633f4ba83a1461047a57806348080a451461048e575f5ffd5b806304f3bcec1461026e57806312622e5b146102b9578063136dc4a8146102f05780631865c57d1461030f5780631c418a44146103b0575b5f5ffd5b348015610279575f5ffd5b507f00000000000000000000000000000000000000000000000000000000000000005b6040516001600160a01b0390911681526020015b60405180910390f35b3480156102c4575f5ffd5b5060fe546102d8906001600160401b031681565b6040516001600160401b0390911681526020016102b0565b3480156102fb575f5ffd5b506102d861030a366004613201565b61097a565b34801561031a575f5ffd5b506103a36040805160a0810182525f80825260208201819052918101829052606081018290526080810191909152506040805160a08101825261012d54815261012e5465ffffffffffff8082166020840152600160301b82046001600160a01b031693830193909352600160d01b900460ff161515606082015261012f54909116608082015290565b6040516102b0919061328b565b3480156103bb575f5ffd5b506103cf6103ca366004613301565b610994565b6040805193151584526001600160a01b039092166020840152908201526060016102b0565b3480156103ff575f5ffd5b505f5b60405190151581526020016102b0565b34801561041d575f5ffd5b506104026109b3565b348015610431575f5ffd5b5061029c7f000000000000000000000000000000000000000000000000000000000000000081565b348015610464575f5ffd5b5061047861047336600461335d565b6109cb565b005b348015610485575f5ffd5b50610478610a9b565b348015610499575f5ffd5b506104786104a8366004613399565b610af6565b3480156104b8575f5ffd5b5060fe546104d090600160401b900463ffffffff1681565b60405163ffffffff90911681526020016102b0565b6104786104f336600461350a565b610cbe565b348015610503575f5ffd5b5061050c610d77565b6040519081526020016102b0565b348015610525575f5ffd5b5060fd546102d890600160801b90046001600160401b031681565b34801561054b575f5ffd5b5061040260c954610100900460ff1660021490565b34801561056b575f5ffd5b5061029c7f000000000000000000000000000000000000000000000000000000000000000081565b34801561059e575f5ffd5b50610478610e28565b3480156105b2575f5ffd5b50610478610e39565b3480156105c6575f5ffd5b506105ee7f000000000000000000000000000000000000000000000000000000000000000081565b60405165ffffffffffff90911681526020016102b0565b348015610610575f5ffd5b50610478610eb0565b348015610624575f5ffd5b50610638610633366004613554565b610f05565b604080519384526001600160401b0392831660208501529116908201526060016102b0565b348015610668575f5ffd5b5061029c611045565b34801561067c575f5ffd5b506033546001600160a01b031661029c565b348015610699575f5ffd5b506105ee7f000000000000000000000000000000000000000000000000000000000000000081565b3480156106cc575f5ffd5b5061029c71777735367b36bc9b61c50022d9d0700db4ec81565b3480156106f1575f5ffd5b5060fd546102d890600160c01b90046001600160401b031681565b348015610717575f5ffd5b5061072b61072636600461358c565b611053565b604080519283526001600160401b039091166020830152016102b0565b348015610753575f5ffd5b5061050c6107623660046135bd565b6101306020525f908152604090205481565b34801561077f575f5ffd5b5061047861078e3660046135d4565b61106e565b34801561079e575f5ffd5b5060fd546102d8906001600160401b031681565b3480156107bd575f5ffd5b506102d87f000000000000000000000000000000000000000000000000000000000000000081565b3480156107f0575f5ffd5b506102d8620f424081565b348015610806575f5ffd5b5061050c63017d784081565b34801561081d575f5ffd5b5060fd546102d890600160401b90046001600160401b031681565b348015610843575f5ffd5b506104786108523660046135ef565b6112a0565b348015610862575f5ffd5b5061050c60fc5481565b348015610877575f5ffd5b506065546001600160a01b031661029c565b348015610894575f5ffd5b5061072b610726366004613632565b3480156108ae575f5ffd5b5061050c6108bd3660046135bd565b6112b9565b3480156108cd575f5ffd5b506108e16108dc3660046136cb565b6112f1565b6040516102b09291906137a9565b3480156108fa575f5ffd5b5061047861090936600461335d565b61171b565b348015610919575f5ffd5b506102d87f000000000000000000000000000000000000000000000000000000000000000081565b34801561094c575f5ffd5b5061047861095b3660046137c5565b61178c565b34801561096b575f5ffd5b506104786108523660046137ed565b5f6040516372c0090b60e11b815260040160405180910390fd5b5f5f5f6109a3878787876118b8565b9250925092509450945094915050565b5f60026109c260c95460ff1690565b60ff1614905090565b6001600160a01b037f0000000000000000000000000000000000000000000000000000000000000000163003610a1c5760405162461bcd60e51b8152600401610a139061382e565b60405180910390fd5b7f00000000000000000000000000000000000000000000000000000000000000006001600160a01b0316610a4e611a5d565b6001600160a01b031614610a745760405162461bcd60e51b8152600401610a139061387a565b610a7d81611a78565b604080515f80825260208201909252610a9891839190611a80565b50565b610aa3611bea565b610ab760c9805461ff001916610100179055565b6040513381527f5db9ee0a495bf2e6ff9c91a7834c1ba4fdd244a5e8aa4e537bd38aeae4b073aa9060200160405180910390a1610af4335f611c1b565b565b84610b0081611c23565b866001600160401b0316610b1381611c44565b610b2360608601604087016138c6565b63ffffffff16610b3281611c44565b610b3f60208701876138df565b60ff16610b4b81611c44565b3371777735367b36bc9b61c50022d9d0700db4ec14610b7d57604051636494e9f760e01b815260040160405180910390fd5b610b85611c64565b610b8f6002611c93565b8415610bae57604051639951d2e960e01b815260040160405180910390fd5b7f00000000000000000000000000000000000000000000000000000000000000006001600160401b0316431015610bf857604051631799c89b60e01b815260040160405180910390fd5b6001600160401b037f0000000000000000000000000000000000000000000000000000000000000000161580610c5657507f00000000000000000000000000000000000000000000000000000000000000006001600160401b031643105b610c7357604051631799c89b60e01b815260040160405180910390fd5b5f610c7f600143613913565b9050610c8a81611ca9565b610c948989611ce1565b610c9e8b8b611dc8565b610ca781611ee6565b50610cb26001611c93565b50505050505050505050565b6001600160a01b037f0000000000000000000000000000000000000000000000000000000000000000163003610d065760405162461bcd60e51b8152600401610a139061382e565b7f00000000000000000000000000000000000000000000000000000000000000006001600160a01b0316610d38611a5d565b6001600160a01b031614610d5e5760405162461bcd60e51b8152600401610a139061387a565b610d6782611a78565b610d7382826001611a80565b5050565b5f306001600160a01b037f00000000000000000000000000000000000000000000000000000000000000001614610e165760405162461bcd60e51b815260206004820152603860248201527f555550535570677261646561626c653a206d757374206e6f742062652063616c60448201527f6c6564207468726f7567682064656c656761746563616c6c00000000000000006064820152608401610a13565b505f516020613c855f395f51905f5290565b610e30611f7d565b610af45f611fd7565b60655433906001600160a01b03168114610ea75760405162461bcd60e51b815260206004820152602960248201527f4f776e61626c6532537465703a2063616c6c6572206973206e6f7420746865206044820152683732bb9037bbb732b960b91b6064820152608401610a13565b610a9881611fd7565b610eb8611ff0565b60c9805461ff0019166102001790556040513381527f62e78cea01bee320cd4e420270b5ea74000d11b0c9f74754ebdbfc544b05a2589060200160405180910390a1610af4336001611c1b565b5f808080610f1660208601866138df565b60ff16610f2960608701604088016138c6565b63ffffffff16610f399190613926565b60fd54909150610f5d906001600160401b03600160c01b8204811691849116612022565b90935091505f610f7360608701604088016138c6565b63ffffffff1660fd60109054906101000a90046001600160401b031688610f9a919061394f565b610fa49190613926565b9050610fb660a08701608088016138c6565b63ffffffff1615801590610fe75750610fd560a08701608088016138c6565b63ffffffff16816001600160401b0316115b1561100557610ffc60a08701608088016138c6565b63ffffffff1690505b6110218484838b61101c60808c0160608d0161396e565b61213a565b909550925063017d784085101561103a5763017d784094505b505093509350939050565b5f61104e611a5d565b905090565b5f5f6040516372c0090b60e11b815260040160405180910390fd5b5f54610100900460ff161580801561108c57505f54600160ff909116105b806110a55750303b1580156110a557505f5460ff166001145b6111085760405162461bcd60e51b815260206004820152602e60248201527f496e697469616c697a61626c653a20636f6e747261637420697320616c72656160448201526d191e481a5b9a5d1a585b1a5e995960921b6064820152608401610a13565b5f805460ff191660011790558015611129575f805461ff0019166101001790555b611132846121ba565b826001600160401b03165f0361115b576040516308279a2560e31b815260040160405180910390fd5b46836001600160401b031603611184576040516308279a2560e31b815260040160405180910390fd5b600146116111a557604051638f972ecb60e01b815260040160405180910390fd5b6001600160401b034611156111cd57604051638f972ecb60e01b815260040160405180910390fd5b431561121757436001036111fe575f6111e7600143613913565b5f81815260fb602052604090209040905550611217565b604051635a0f9e4160e11b815260040160405180910390fd5b60fe80546001600160401b0380861667ffffffffffffffff199283161790925560fd80549285169290911691909117905561125143612218565b5060fc55801561129a575f805461ff0019169055604051600181527f7f26b83ff96e1f2b6a682f133852f6798a09c465da95921460cefb38474024989060200160405180910390a15b50505050565b6040516372c0090b60e11b815260040160405180910390fd5b5f4382106112c857505f919050565b436112d583610100613987565b106112df57504090565b505f90815260fb602052604090205490565b6040805160a0810182525f808252602082018190529181018290526060810182905260808101919091526040805160a0810182525f808252602082018190529181018290526060810182905260808101919091523371777735367b36bc9b61c50022d9d0700db4ec1461137757604051636494e9f760e01b815260040160405180910390fd5b61137f611c64565b6113896002611c93565b7f00000000000000000000000000000000000000000000000000000000000000006001600160401b03164310156113d357604051631799c89b60e01b815260040160405180910390fd5b50506040805160a08101825261012d54815261012e5465ffffffffffff8082166020840152600160301b82046001600160a01b031693830193909352600160d01b900460ff161515606082015261012f5490911660808201528061144061143b600143613913565b6122a8565b8661ffff165f0361159d575f6114588f8f8f8f6118b8565b6001600160a01b03909116604085015290151560608401529050801561158e57604051631c89cb6f60e11b81526001600160a01b038f81166004830152602482018390527f0000000000000000000000000000000000000000000000000000000000000000169063391396de906044016020604051808303815f875af11580156114e4573d5f5f3e3d5ffd5b505050506040513d601f19601f82011682018060405250810190611508919061399a565b506040828101519051632f8cb47d60e21b81526001600160a01b039182166004820152602481018390527f00000000000000000000000000000000000000000000000000000000000000009091169063be32d1f4906044015f604051808303815f87803b158015611577575f5ffd5b505af1158015611589573d5f5f3e3d5ffd5b505050505b6115998a8a8d6122e7565b8252505b816020015165ffffffffffff168665ffffffffffff16111561166f576040805160608101825265ffffffffffff8881168252602082018881528284018881529351631934171960e31b815292519091166004830152516024820152905160448201527f00000000000000000000000000000000000000000000000000000000000000006001600160a01b03169063c9a0b8c8906064015f604051808303815f87803b15801561164a575f5ffd5b505af115801561165c573d5f5f3e3d5ffd5b50505065ffffffffffff87166020830152505b65ffffffffffff80841660808301819052825161012d5560208084015161012e805460408088015160608901511515600160d01b0260ff60d01b196001600160a01b03909216600160301b026001600160d01b0319909416959098169490941791909117929092169490941790935561012f805465ffffffffffff191683179055435f908152610130909152919091205561170a6001611c93565b9c509c9a5050505050505050505050565b611723611f7d565b606580546001600160a01b0383166001600160a01b031990911681179091556117546033546001600160a01b031690565b6001600160a01b03167f38d16b8cac22d99fc7c124b9cd0de2d3fa1faef420bfe791d8c362d765e2270060405160405180910390a350565b806117968161251b565b61179e611ff0565b6117a6611f7d565b6117ae611c64565b6117b86002611c93565b5f6001600160a01b0384166117e15750476117dc6001600160a01b03841682612542565b61185d565b6040516370a0823160e01b81523060048201526001600160a01b038516906370a0823190602401602060405180830381865afa158015611823573d5f5f3e3d5ffd5b505050506040513d601f19601f82011682018060405250810190611847919061399a565b905061185d6001600160a01b038516848361254d565b604080516001600160a01b038087168252851660208201529081018290527fd1c19fbcd4551a5edfb66d43d2e337c04837afda3482b42bdf569a8fccdae5fb9060600160405180910390a1506118b36001611c93565b505050565b5f5f5f5f6118c88888888861259f565b90935065ffffffffffff1690506118e3633b9aca00826139b1565b60405163508b724360e11b81526001600160a01b038981166004830152602482018390529192507f00000000000000000000000000000000000000000000000000000000000000009091169063a116e48690604401602060405180830381865afa158015611953573d5f5f3e3d5ffd5b505050506040513d601f19601f8201168201806040525081019061197791906139c8565b159350831561199b5761012e54600160301b90046001600160a01b03169250611a52565b866001600160a01b0316836001600160a01b031614611a525760405163508b724360e11b81526001600160a01b0384811660048301525f60248301527f0000000000000000000000000000000000000000000000000000000000000000169063a116e48690604401602060405180830381865afa158015611a1e573d5f5f3e3d5ffd5b505050506040513d601f19601f82011682018060405250810190611a4291906139c8565b611a4e57869250611a52565b8091505b509450945094915050565b5f516020613c855f395f51905f52546001600160a01b031690565b610a98611f7d565b7f4910fdfa16fed3260ed0e7147f7cc6da11a60208b5b9406d12a635614ffd91435460ff1615611ab3576118b3836126df565b826001600160a01b03166352d1902d6040518163ffffffff1660e01b8152600401602060405180830381865afa925050508015611b0d575060408051601f3d908101601f19168201909252611b0a9181019061399a565b60015b611b705760405162461bcd60e51b815260206004820152602e60248201527f45524331393637557067726164653a206e657720696d706c656d656e7461746960448201526d6f6e206973206e6f74205555505360901b6064820152608401610a13565b5f516020613c855f395f51905f528114611bde5760405162461bcd60e51b815260206004820152602960248201527f45524331393637557067726164653a20756e737570706f727465642070726f786044820152681a58589b195555525160ba1b6064820152608401610a13565b506118b383838361277a565b611bfe60c954610100900460ff1660021490565b610af45760405163bae6e2a960e01b815260040160405180910390fd5b610d73611f7d565b5f819003610a985760405163ec73295960e01b815260040160405180910390fd5b805f03610a985760405163ec73295960e01b815260040160405180910390fd5b6002611c7260c95460ff1690565b60ff1603610af45760405163dfc60d8560e01b815260040160405180910390fd5b60c9805460ff191660ff92909216919091179055565b5f5f611cb483612218565b915091508160fc5414611cda5760405163d719258d60e01b815260040160405180910390fd5b60fc555050565b5f5f5f611cef854286610f05565b92509250925082481480611d0057505f5b611d1d576040516336d54d4f60e11b815260040160405180910390fd5b60fd5460408051600160c01b83046001600160401b039081168252858116602083015292831681830152918316606083015260808201859052517f781ae5c2215806150d5c71a4ed5336e5dc3ad32aef04fc0f626a6ee0c2f8d1c89181900360a00190a160fd805477ffffffffffffffffffffffffffffffff000000000000000016600160c01b6001600160401b039485160267ffffffffffffffff19161791909216179055505050565b60fd546001600160401b03600160401b909104811690831611611de9575050565b60fe546040516313e4299d60e21b81526001600160401b0391821660048201527f73e6d340850343cc6f001515dc593377337c95a6ffe034fe1e844d4dab5da16960248201529083166044820152606481018290527f00000000000000000000000000000000000000000000000000000000000000006001600160a01b031690634f90a674906084016020604051808303815f875af1158015611e8e573d5f5f3e3d5ffd5b505050506040513d601f19601f82011682018060405250810190611eb2919061399a565b505060fd80546001600160401b03909216600160401b026fffffffffffffffff000000000000000019909216919091179055565b5f81815260fb60205260409081902082409081905560fd80546001600160401b03428116600160801b0267ffffffffffffffff60801b1983168117909355935192937f41c3f410f5c8ac36bb46b1dccef0de0f964087c9e688795fa02ecfa2c20b3fe493611f71938693908316921691909117909182526001600160401b0316602082015260400190565b60405180910390a15050565b6033546001600160a01b03163314610af45760405162461bcd60e51b815260206004820181905260248201527f4f776e61626c653a2063616c6c6572206973206e6f7420746865206f776e65726044820152606401610a13565b606580546001600160a01b0319169055610a988161279e565b61200460c954610100900460ff1660021490565b15610af45760405163bae6e2a960e01b815260040160405180910390fd5b5f80670de0b6b3a76400006001600160401b03861682036120495784849250925050612132565b6001600160401b03851615806120705750846001600160401b0316866001600160401b0316145b8061208e5750612081815f196139fb565b856001600160401b031610155b1561209f5785849250925050612132565b5f866001600160401b0316866001600160401b0316836120bf91906139b1565b6120c991906139fb565b90508015806120de57506001600160ff1b0381115b156120f0578585935093505050612132565b5f6120fa826127ef565b90505f828702828902015f81126001811461211957858204925061211d565b5f92505b50508761212982612a0c565b95509550505050505b935093915050565b5f808061215663ffffffff86166001600160401b038916613987565b9050856001600160401b0316811161216f576001612182565b6121826001600160401b03871682613913565b90506121a16001600160401b0361219b83878316612a24565b90612a3b565b91506121ad8883612a4f565b9250509550959350505050565b5f54610100900460ff166121e05760405162461bcd60e51b8152600401610a1390613a0e565b6121e8612a91565b6122066001600160a01b038216156122005781611fd7565b33611fd7565b5060c9805461ff001916610100179055565b5f5f6122226131c6565b46611fe08201525f5b60ff8110801561223e5750806001018510155b1561226f575f198186030180408360ff8306610100811061226157612261613a59565b60200201525060010161222b565b506120008120925083408161228560ff87613a6d565b610100811061229657612296613a59565b60200201526120009020919391925050565b5f81815260fb6020526040902054156122d45760405163614dc56760e01b815260040160405180910390fd5b5f81815260fb6020526040902090409055565b61012d54825f5b818110156124f2575f86868381811061230957612309613a59565b90506080020180360381019061231f9190613a80565b90505f60028260200151600281111561233a5761233a613ae4565b0361236657507f00000000000000000000000000000000000000000000000000000000000000006123a6565b60018260200151600281111561237e5761237e613ae4565b036123a657507f00000000000000000000000000000000000000000000000000000000000000005b65ffffffffffff8116156124d9576040828101519051631c89cb6f60e11b81526001600160a01b03918216600482015265ffffffffffff831660248201525f917f0000000000000000000000000000000000000000000000000000000000000000169063391396de906044016020604051808303815f875af115801561242e573d5f5f3e3d5ffd5b505050506040513d601f19601f82011682018060405250810190612452919061399a565b6060840151604051632f8cb47d60e21b81526001600160a01b039182166004820152602481018390529192507f0000000000000000000000000000000000000000000000000000000000000000169063be32d1f4906044015f604051808303815f87803b1580156124c1575f5ffd5b505af11580156124d3573d5f5f3e3d5ffd5b50505050505b6124e38583612ab7565b945050508060010190506122ee565b50828214612513576040516388c4700b60e01b815260040160405180910390fd5b509392505050565b6001600160a01b038116610a985760405163538ba4f960e01b815260040160405180910390fd5b610d7382825a612b15565b604080516001600160a01b038416602482015260448082018490528251808303909101815260649091019091526020810180516001600160e01b031663a9059cbb60e01b1790526118b3908490612b58565b5f8060a18310156125b457508390505f6126d6565b5f6125c184860186613af8565b90508665ffffffffffff16815f015165ffffffffffff161415806125fb5750856001600160a01b031681602001516001600160a01b031614155b1561260c57855f92509250506126d6565b8051602080830151604080850151815165ffffffffffff958616948101949094526001600160a01b03909216908301529190911660608201525f906080016040516020818303038152906040528051906020012090505f5f612672838560600151612c2b565b90925090505f81600481111561268a5761268a613ae4565b14801561269f57506001600160a01b03821615155b156126cd57819550886001600160a01b0316866001600160a01b0316146126c857836040015194505b6126d1565b8895505b505050505b94509492505050565b6001600160a01b0381163b61274c5760405162461bcd60e51b815260206004820152602d60248201527f455243313936373a206e657720696d706c656d656e746174696f6e206973206e60448201526c1bdd08184818dbdb9d1c9858dd609a1b6064820152608401610a13565b5f516020613c855f395f51905f5280546001600160a01b0319166001600160a01b0392909216919091179055565b61278383612c6d565b5f8251118061278f5750805b156118b35761129a8383612cac565b603380546001600160a01b038381166001600160a01b0319831681179093556040519116919082907f8be0079c531659141344cd1fd0a4f28419497f9722a3daafe3b4186f6b6457e0905f90a35050565b6fffffffffffffffffffffffffffffffff811160071b81811c6001600160401b031060061b1781811c63ffffffff1060051b1781811c61ffff1060041b1781811c60ff1060031b175f821361284b57631615e6385f526004601cfd5b7ff8f9f9faf9fdfafbf9fdfcfdfafbfcfef9fafdfafcfcfbfefafafcfbffffffff6f8421084210842108cc6318c6db6d54be83831c1c601f161a1890811b609f90811c6c465772b2bbbb5f824b15207a3081018102606090811d6d0388eaa27412d5aca026815d636e018202811d6d0df99ac502031bf953eff472fdcc018202811d6d13cdffb29d51d99322bdff5f2211018202811d6d0a0f742023def783a307a986912e018202811d6d01920d8043ca89b5239253284e42018202811d6c0b7a86d7375468fac667a0a527016c29508e458543d8aa4df2abee7883018302821d6d0139601a2efabe717e604cbb4894018302821d6d02247f7a7b6594320649aa03aba1018302821d6c8c3f38e95a6b1ff2ab1c3b343619018302821d6d02384773bdf1ac5676facced60901901830290911d6cb9a025d814b29c212b8b1a07cd1901909102780a09507084cc699bb0e71ea869ffffffffffffffffffffffff190105711340daa0d5f769dba1915cef59f0815a5506029190037d0267a36c0c95b3975ab3ee5b203a7614a3f75373f047d803ae7b6687f2b302017d57115e47018c7177eebf7cd370a3356a1b7863008a5ae8028c72b88642840160ae1d90565b5f612a1e826001600160401b03612a3b565b92915050565b5f818311612a325781612a34565b825b9392505050565b5f818311612a495782612a34565b50919050565b5f826001600160401b03165f03612a6857506001612a1e565b612a346001846001600160401b0316612a818686612cd1565b612a8b91906139fb565b90612a24565b5f54610100900460ff16610af45760405162461bcd60e51b8152600401610a1390613a0e565b80515f9065ffffffffffff161580612ae357505f82602001516002811115612ae157612ae1613ae4565b145b612a32578282604051602001612afa929190613b95565b60405160208183030381529060405280519060200120612a34565b815f03612b2157505050565b612b3b83838360405180602001604052805f815250612d5f565b6118b357604051634c67134d60e11b815260040160405180910390fd5b5f612bac826040518060400160405280602081526020017f5361666545524332303a206c6f772d6c6576656c2063616c6c206661696c6564815250856001600160a01b0316612d9c9092919063ffffffff16565b905080515f1480612bcc575080806020019051810190612bcc91906139c8565b6118b35760405162461bcd60e51b815260206004820152602a60248201527f5361666545524332303a204552433230206f7065726174696f6e20646964206e6044820152691bdd081cdd58d8d9595960b21b6064820152608401610a13565b5f5f8251604103612c5f576020830151604084015160608501515f1a612c5387828585612daa565b94509450505050612c66565b505f905060025b9250929050565b612c76816126df565b6040516001600160a01b038216907fbc7cd75a20ee27fd9adebab32041f755214dbc6bffa90cc0225b39da2e5c2d3b905f90a250565b6060612a348383604051806060016040528060278152602001613ca560279139612e64565b5f826001600160401b03165f03612cea57612cea613c01565b5f836001600160401b0316836001600160401b0316670de0b6b3a7640000612d1291906139b1565b612d1c91906139fb565b9050680755bf798b4a1bf1e4811115612d3b5750680755bf798b4a1bf1e45b670de0b6b3a7640000612d4d82612ed8565b612d5791906139fb565b949350505050565b5f6001600160a01b038516612d8757604051634c67134d60e11b815260040160405180910390fd5b5f5f835160208501878988f195945050505050565b6060612d5784845f85613052565b5f807f7fffffffffffffffffffffffffffffff5d576e7357a4501ddfe92f46681b20a0831115612ddf57505f905060036126d6565b604080515f8082526020820180845289905260ff881692820192909252606081018690526080810185905260019060a0016020604051602081039080840390855afa158015612e30573d5f5f3e3d5ffd5b5050604051601f1901519150506001600160a01b038116612e58575f600192509250506126d6565b965f9650945050505050565b60605f5f856001600160a01b031685604051612e809190613c37565b5f60405180830381855af49150503d805f8114612eb8576040519150601f19603f3d011682016040523d82523d5f602084013e612ebd565b606091505b5091509150612ece86838387613129565b9695505050505050565b5f68023f2fa8f6da5b9d28198213612eef57919050565b680755bf798b4a1bf1e58212612f0c5763a37bfec95f526004601cfd5b6503782dace9d9604e83901b0591505f60606bb17217f7d1cf79abc9e3b39884821b056001605f1b01901d6bb17217f7d1cf79abc9e3b39881029093036c240c330e9fb2d9cbaf0fd5aafb1981018102606090811d6d0277594991cfc85f6e2461837cd9018202811d6d1a521255e34f6a5061b25ef1c9c319018202811d6db1bbb201f443cf962f1a1d3db4a5018202811d6e02c72388d9f74f51a9331fed693f1419018202811d6e05180bb14799ab47a8a8cb2a527d57016d02d16720577bd19bf614176fe9ea6c10fe68e7fd37d0007b713f765084018402831d9081019084016d01d3967ed30fc4f89c02bab5708119010290911d6e0587f503bb6ea29d25fcb740196450019091026d360d7aeea093263ecc6e0ecb291760621b010574029d9dc38563c32e5c2f6dc192ee70ef65f9978af30260c3939093039290921c92915050565b6060824710156130b35760405162461bcd60e51b815260206004820152602660248201527f416464726573733a20696e73756666696369656e742062616c616e636520666f6044820152651c8818d85b1b60d21b6064820152608401610a13565b5f5f866001600160a01b031685876040516130ce9190613c37565b5f6040518083038185875af1925050503d805f8114613108576040519150601f19603f3d011682016040523d82523d5f602084013e61310d565b606091505b509150915061311e87838387613129565b979650505050505050565b606083156131975782515f03613190576001600160a01b0385163b6131905760405162461bcd60e51b815260206004820152601d60248201527f416464726573733a2063616c6c20746f206e6f6e2d636f6e74726163740000006044820152606401610a13565b5081612d57565b612d5783838151156131ac5781518083602001fd5b8060405162461bcd60e51b8152600401610a139190613c52565b604051806120000160405280610100906020820280368337509192915050565b80356001600160401b03811681146131fc575f5ffd5b919050565b5f5f5f60608486031215613213575f5ffd5b61321c846131e6565b925061322a602085016131e6565b9150613238604085016131e6565b90509250925092565b8051825265ffffffffffff602082015116602083015260018060a01b03604082015116604083015260608101511515606083015265ffffffffffff60808201511660808301525050565b60a08101612a1e8284613241565b803565ffffffffffff811681146131fc575f5ffd5b80356001600160a01b03811681146131fc575f5ffd5b5f5f83601f8401126132d4575f5ffd5b5081356001600160401b038111156132ea575f5ffd5b602083019150836020828501011115612c66575f5ffd5b5f5f5f5f60608587031215613314575f5ffd5b61331d85613299565b935061332b602086016132ae565b925060408501356001600160401b03811115613345575f5ffd5b613351878288016132c4565b95989497509550505050565b5f6020828403121561336d575f5ffd5b612a34826132ae565b803563ffffffff811681146131fc575f5ffd5b5f60a08284031215612a49575f5ffd5b5f5f5f5f5f5f61012087890312156133af575f5ffd5b6133b8876131e6565b9550602087013594506133cd60408801613376565b93506133dc8860608901613389565b92506101008701356001600160401b038111156133f7575f5ffd5b8701601f81018913613407575f5ffd5b80356001600160401b0381111561341c575f5ffd5b8960208260051b8401011115613430575f5ffd5b60208201935080925050509295509295509295565b634e487b7160e01b5f52604160045260245ffd5b604051608081016001600160401b038111828210171561347b5761347b613445565b60405290565b5f82601f830112613490575f5ffd5b81356001600160401b038111156134a9576134a9613445565b604051601f8201601f19908116603f011681016001600160401b03811182821017156134d7576134d7613445565b6040528181528382016020018510156134ee575f5ffd5b816020850160208301375f918101602001919091529392505050565b5f5f6040838503121561351b575f5ffd5b613524836132ae565b915060208301356001600160401b0381111561353e575f5ffd5b61354a85828601613481565b9150509250929050565b5f5f5f60e08486031215613566575f5ffd5b61356f84613376565b925061357d602085016131e6565b91506132388560408601613389565b5f5f6040838503121561359d575f5ffd5b6135a6836131e6565b91506135b460208401613376565b90509250929050565b5f602082840312156135cd575f5ffd5b5035919050565b5f5f5f606084860312156135e6575f5ffd5b61321c846132ae565b5f5f5f5f60808587031215613602575f5ffd5b8435935060208501359250613619604086016131e6565b915061362760608601613376565b905092959194509250565b5f5f5f5f6101008587031215613646575f5ffd5b6136508686613389565b935061365e60a086016131e6565b925061366c60c086016131e6565b915061362760e08601613376565b5f5f83601f84011261368a575f5ffd5b5081356001600160401b038111156136a0575f5ffd5b6020830191508360208260071b8501011115612c66575f5ffd5b803561ffff811681146131fc575f5ffd5b5f5f5f5f5f5f5f5f5f5f5f5f6101408d8f0312156136e7575f5ffd5b6136f08d613299565b9b506136fe60208e016132ae565b9a506001600160401b0360408e01351115613717575f5ffd5b6137278e60408f01358f016132c4565b909a50985060608d013597506001600160401b0360808e0135111561374a575f5ffd5b61375a8e60808f01358f0161367a565b909750955061376b60a08e016136ba565b945061377960c08e01613299565b935060e08d013592506101008d013591506137976101208e01613299565b90509295989b509295989b509295989b565b61014081016137b88285613241565b612a3460a0830184613241565b5f5f604083850312156137d6575f5ffd5b6137df836132ae565b91506135b4602084016132ae565b5f5f5f5f6101008587031215613801575f5ffd5b61380a856131e6565b93506020850135925061381f60408601613376565b91506136278660608701613389565b6020808252602c908201527f46756e6374696f6e206d7573742062652063616c6c6564207468726f7567682060408201526b19195b1959d85d1958d85b1b60a21b606082015260800190565b6020808252602c908201527f46756e6374696f6e206d7573742062652063616c6c6564207468726f7567682060408201526b6163746976652070726f787960a01b606082015260800190565b5f602082840312156138d6575f5ffd5b612a3482613376565b5f602082840312156138ef575f5ffd5b813560ff81168114612a34575f5ffd5b634e487b7160e01b5f52601160045260245ffd5b81810381811115612a1e57612a1e6138ff565b6001600160401b038181168382160290811690818114613948576139486138ff565b5092915050565b6001600160401b038281168282160390811115612a1e57612a1e6138ff565b5f6020828403121561397e575f5ffd5b612a34826131e6565b80820180821115612a1e57612a1e6138ff565b5f602082840312156139aa575f5ffd5b5051919050565b8082028115828204841417612a1e57612a1e6138ff565b5f602082840312156139d8575f5ffd5b81518015158114612a34575f5ffd5b634e487b7160e01b5f52601260045260245ffd5b5f82613a0957613a096139e7565b500490565b6020808252602b908201527f496e697469616c697a61626c653a20636f6e7472616374206973206e6f74206960408201526a6e697469616c697a696e6760a81b606082015260800190565b634e487b7160e01b5f52603260045260245ffd5b5f82613a7b57613a7b6139e7565b500690565b5f6080828403128015613a91575f5ffd5b50613a9a613459565b613aa383613299565b8152602083013560038110613ab6575f5ffd5b6020820152613ac7604084016132ae565b6040820152613ad8606084016132ae565b60608201529392505050565b634e487b7160e01b5f52602160045260245ffd5b5f60208284031215613b08575f5ffd5b81356001600160401b03811115613b1d575f5ffd5b820160808185031215613b2e575f5ffd5b613b36613459565b613b3f82613299565b8152613b4d602083016132ae565b6020820152613b5e60408301613299565b604082015260608201356001600160401b03811115613b7b575f5ffd5b613b8786828501613481565b606083015250949350505050565b5f60a08201905083825265ffffffffffff8351166020830152602083015160038110613bcf57634e487b7160e01b5f52602160045260245ffd5b6040838101919091528301516001600160a01b0390811660608085019190915290930151909216608090910152919050565b634e487b7160e01b5f52600160045260245ffd5b5f5b83811015613c2f578181015183820152602001613c17565b50505f910152565b5f8251613c48818460208701613c15565b9190910192915050565b602081525f8251806020840152613c70816040850160208701613c15565b601f01601f1916919091016040019291505056fe360894a13ba1a3210667c828492db98dca3e2076cc3735a920a3ca505d382bbc416464726573733a206c6f772d6c6576656c2064656c65676174652063616c6c206661696c6564a26469706673582212207a4d261dd1d9a1ca96c0c1cc53ea3e417f2ec880b1007060dc1f2758e70c59a164736f6c634300081e0033","linkReferences":{}},"methodIdentifiers":{"ANCHOR_GAS_LIMIT()":"c46e3a66","BASEFEE_MIN_VALUE()":"cbd9999e","GOLDEN_TOUCH_ADDRESS()":"9ee512f2","acceptOwnership()":"79ba5097","adjustExcess(uint64,uint64,uint64)":"136dc4a8","anchor(bytes32,bytes32,uint64,uint32)":"da69d3db","anchorV2(uint64,bytes32,uint32,(uint8,uint8,uint32,uint64,uint32))":"fd85eb2d","anchorV3(uint64,bytes32,uint32,(uint8,uint8,uint32,uint64,uint32),bytes32[])":"48080a45","blockIdToEndOfSubmissionWindowTimeStamp(uint256)":"b2105fec","bondManager()":"363cc427","calculateBaseFee((uint8,uint8,uint32,uint64,uint32),uint64,uint64,uint32)":"e902461a","getBasefee(uint64,uint32)":"a7e022d1","getBasefeeV2(uint32,uint64,(uint8,uint8,uint32,uint64,uint32))":"893f5460","getBlockHash(uint256)":"ee82ac5e","getDesignatedProver(uint48,address,bytes)":"1c418a44","getState()":"1865c57d","impl()":"8abf6077","inNonReentrant()":"3075db56","init(address,uint64,uint64)":"b310e9e9","l1ChainId()":"12622e5b","lastAnchorGasUsed()":"4ef77eb5","lastCheckpoint()":"d32e81a5","livenessBondGwei()":"9de74679","owner()":"8da5cb5b","pacayaForkHeight()":"ba9f41e8","parentGasExcess()":"b8c7b30c","parentGasTarget()":"a7137c0f","parentTimestamp()":"539b8ade","pause()":"8456cb59","paused()":"5c975abb","pendingOwner()":"e30c3978","provabilityBondGwei()":"79efb434","proxiableUUID()":"52d1902d","publicInputHash()":"dac5df78","renounceOwnership()":"715018a6","resolver()":"04f3bcec","shastaForkHeight()":"f37f2868","signalService()":"62d09453","skipFeeCheck()":"2f980473","transferOwnership(address)":"f2fde38b","unpause()":"3f4ba83a","updateState(uint48,address,bytes,bytes32,(uint48,uint8,address,address)[],uint16,uint48,bytes32,bytes32,uint48)":"f2a49b00","upgradeTo(address)":"3659cfe6","upgradeToAndCall(address,bytes)":"4f1ef286","withdraw(address,address)":"f940e385"},"storageLayout":{"storage":[{"astId":12730,"contract":"contracts/layer2/based/TaikoAnchor.sol:TaikoAnchor","label":"_initialized","offset":0,"slot":"0","type":"t_uint8"},{"astId":12733,"contract":"contracts/layer2/based/TaikoAnchor.sol:TaikoAnchor","label":"_initializing","offset":1,"slot":"0","type":"t_bool"},{"astId":17564,"contract":"contracts/layer2/based/TaikoAnchor.sol:TaikoAnchor","label":"__gap","offset":0,"slot":"1","type":"t_array(t_uint256)50_storage"},{"astId":12475,"contract":"contracts/layer2/based/TaikoAnchor.sol:TaikoAnchor","label":"_owner","offset":0,"slot":"51","type":"t_address"},{"astId":12595,"contract":"contracts/layer2/based/TaikoAnchor.sol:TaikoAnchor","label":"__gap","offset":0,"slot":"52","type":"t_array(t_uint256)49_storage"},{"astId":12368,"contract":"contracts/layer2/based/TaikoAnchor.sol:TaikoAnchor","label":"_pendingOwner","offset":0,"slot":"101","type":"t_address"},{"astId":12462,"contract":"contracts/layer2/based/TaikoAnchor.sol:TaikoAnchor","label":"__gap","offset":0,"slot":"102","type":"t_array(t_uint256)49_storage"},{"astId":4949,"contract":"contracts/layer2/based/TaikoAnchor.sol:TaikoAnchor","label":"__gapFromOldAddressResolver","offset":0,"slot":"151","type":"t_array(t_uint256)50_storage"},{"astId":4952,"contract":"contracts/layer2/based/TaikoAnchor.sol:TaikoAnchor","label":"__reentry","offset":0,"slot":"201","type":"t_uint8"},{"astId":4954,"contract":"contracts/layer2/based/TaikoAnchor.sol:TaikoAnchor","label":"__paused","offset":1,"slot":"201","type":"t_uint8"},{"astId":4958,"contract":"contracts/layer2/based/TaikoAnchor.sol:TaikoAnchor","label":"__gap","offset":0,"slot":"202","type":"t_array(t_uint256)49_storage"},{"astId":1151,"contract":"contracts/layer2/based/TaikoAnchor.sol:TaikoAnchor","label":"_blockhashes","offset":0,"slot":"251","type":"t_mapping(t_uint256,t_bytes32)"},{"astId":1154,"contract":"contracts/layer2/based/TaikoAnchor.sol:TaikoAnchor","label":"publicInputHash","offset":0,"slot":"252","type":"t_bytes32"},{"astId":1157,"contract":"contracts/layer2/based/TaikoAnchor.sol:TaikoAnchor","label":"parentGasExcess","offset":0,"slot":"253","type":"t_uint64"},{"astId":1160,"contract":"contracts/layer2/based/TaikoAnchor.sol:TaikoAnchor","label":"lastCheckpoint","offset":8,"slot":"253","type":"t_uint64"},{"astId":1163,"contract":"contracts/layer2/based/TaikoAnchor.sol:TaikoAnchor","label":"parentTimestamp","offset":16,"slot":"253","type":"t_uint64"},{"astId":1166,"contract":"contracts/layer2/based/TaikoAnchor.sol:TaikoAnchor","label":"parentGasTarget","offset":24,"slot":"253","type":"t_uint64"},{"astId":1169,"contract":"contracts/layer2/based/TaikoAnchor.sol:TaikoAnchor","label":"l1ChainId","offset":0,"slot":"254","type":"t_uint64"},{"astId":1171,"contract":"contracts/layer2/based/TaikoAnchor.sol:TaikoAnchor","label":"lastAnchorGasUsed","offset":8,"slot":"254","type":"t_uint32"},{"astId":1175,"contract":"contracts/layer2/based/TaikoAnchor.sol:TaikoAnchor","label":"__gap","offset":0,"slot":"255","type":"t_array(t_uint256)46_storage"},{"astId":1815,"contract":"contracts/layer2/based/TaikoAnchor.sol:TaikoAnchor","label":"_state","offset":0,"slot":"301","type":"t_struct(State)1787_storage"},{"astId":1819,"contract":"contracts/layer2/based/TaikoAnchor.sol:TaikoAnchor","label":"blockIdToEndOfSubmissionWindowTimeStamp","offset":0,"slot":"304","type":"t_mapping(t_uint256,t_uint256)"},{"astId":1824,"contract":"contracts/layer2/based/TaikoAnchor.sol:TaikoAnchor","label":"__gap","offset":0,"slot":"305","type":"t_array(t_uint256)46_storage"}],"types":{"t_address":{"encoding":"inplace","label":"address","numberOfBytes":"20"},"t_array(t_uint256)46_storage":{"encoding":"inplace","label":"uint256[46]","numberOfBytes":"1472","base":"t_uint256"},"t_array(t_uint256)49_storage":{"encoding":"inplace","label":"uint256[49]","numberOfBytes":"1568","base":"t_uint256"},"t_array(t_uint256)50_storage":{"encoding":"inplace","label":"uint256[50]","numberOfBytes":"1600","base":"t_uint256"},"t_bool":{"encoding":"inplace","label":"bool","numberOfBytes":"1"},"t_bytes32":{"encoding":"inplace","label":"bytes32","numberOfBytes":"32"},"t_mapping(t_uint256,t_bytes32)":{"encoding":"mapping","key":"t_uint256","label":"mapping(uint256 => bytes32)","numberOfBytes":"32","value":"t_bytes32"},"t_mapping(t_uint256,t_uint256)":{"encoding":"mapping","key":"t_uint256","label":"mapping(uint256 => uint256)","numberOfBytes":"32","value":"t_uint256"},"t_struct(State)1787_storage":{"encoding":"inplace","label":"struct ShastaAnchor.State","numberOfBytes":"96","members":[{"astId":1778,"contract":"contracts/layer2/based/TaikoAnchor.sol:TaikoAnchor","label":"bondInstructionsHash","offset":0,"slot":"0","type":"t_bytes32"},{"astId":1780,"contract":"contracts/layer2/based/TaikoAnchor.sol:TaikoAnchor","label":"anchorBlockNumber","offset":0,"slot":"1","type":"t_uint48"},{"astId":1782,"contract":"contracts/layer2/based/TaikoAnchor.sol:TaikoAnchor","label":"designatedProver","offset":6,"slot":"1","type":"t_address"},{"astId":1784,"contract":"contracts/layer2/based/TaikoAnchor.sol:TaikoAnchor","label":"isLowBondProposal","offset":26,"slot":"1","type":"t_bool"},{"astId":1786,"contract":"contracts/layer2/based/TaikoAnchor.sol:TaikoAnchor","label":"endOfSubmissionWindowTimestamp","offset":0,"slot":"2","type":"t_uint48"}]},"t_uint256":{"encoding":"inplace","label":"uint256","numberOfBytes":"32"},"t_uint32":{"encoding":"inplace","label":"uint32","numberOfBytes":"4"},"t_uint48":{"encoding":"inplace","label":"uint48","numberOfBytes":"6"},"t_uint64":{"encoding":"inplace","label":"uint64","numberOfBytes":"8"},"t_uint8":{"encoding":"inplace","label":"uint8","numberOfBytes":"1"}}},"id":8}