{"abi":[{"type":"constructor","inputs":[{"name":"_checkpointStore","type":"address","internalType":"contract ICheckpointStore"},{"name":"_bondManager","type":"address","internalType":"contract IBondManager"},{"name":"_livenessBond","type":"uint256","internalType":"uint256"},{"name":"_provabilityBond","type":"uint256","internalType":"uint256"},{"name":"_l1ChainId","type":"uint64","internalType":"uint64"},{"name":"_owner","type":"address","internalType":"address"}],"stateMutability":"nonpayable"},{"type":"function","name":"ANCHOR_GAS_LIMIT","inputs":[],"outputs":[{"name":"","type":"uint64","internalType":"uint64"}],"stateMutability":"view"},{"type":"function","name":"GOLDEN_TOUCH_ADDRESS","inputs":[],"outputs":[{"name":"","type":"address","internalType":"address"}],"stateMutability":"view"},{"type":"function","name":"_isMatchingProverAuthContext","inputs":[{"name":"_auth","type":"tuple","internalType":"struct Anchor.ProverAuth","components":[{"name":"proposalId","type":"uint48","internalType":"uint48"},{"name":"proposer","type":"address","internalType":"address"},{"name":"provingFee","type":"uint256","internalType":"uint256"},{"name":"signature","type":"bytes","internalType":"bytes"}]},{"name":"_proposalId","type":"uint48","internalType":"uint48"},{"name":"_proposer","type":"address","internalType":"address"}],"outputs":[{"name":"","type":"bool","internalType":"bool"}],"stateMutability":"pure"},{"type":"function","name":"acceptOwnership","inputs":[],"outputs":[],"stateMutability":"nonpayable"},{"type":"function","name":"anchorV4","inputs":[{"name":"_proposalParams","type":"tuple","internalType":"struct Anchor.ProposalParams","components":[{"name":"proposalId","type":"uint48","internalType":"uint48"},{"name":"proposer","type":"address","internalType":"address"},{"name":"proverAuth","type":"bytes","internalType":"bytes"},{"name":"bondInstructionsHash","type":"bytes32","internalType":"bytes32"},{"name":"bondInstructions","type":"tuple[]","internalType":"struct LibBonds.BondInstruction[]","components":[{"name":"proposalId","type":"uint48","internalType":"uint48"},{"name":"bondType","type":"uint8","internalType":"enum LibBonds.BondType"},{"name":"payer","type":"address","internalType":"address"},{"name":"payee","type":"address","internalType":"address"}]}]},{"name":"_blockParams","type":"tuple","internalType":"struct Anchor.BlockParams","components":[{"name":"blockIndex","type":"uint16","internalType":"uint16"},{"name":"anchorBlockNumber","type":"uint48","internalType":"uint48"},{"name":"anchorBlockHash","type":"bytes32","internalType":"bytes32"},{"name":"anchorStateRoot","type":"bytes32","internalType":"bytes32"}]}],"outputs":[],"stateMutability":"nonpayable"},{"type":"function","name":"bondManager","inputs":[],"outputs":[{"name":"","type":"address","internalType":"contract IBondManager"}],"stateMutability":"view"},{"type":"function","name":"checkpointStore","inputs":[],"outputs":[{"name":"","type":"address","internalType":"contract ICheckpointStore"}],"stateMutability":"view"},{"type":"function","name":"getBlockState","inputs":[],"outputs":[{"name":"","type":"tuple","internalType":"struct Anchor.BlockState","components":[{"name":"anchorBlockNumber","type":"uint48","internalType":"uint48"},{"name":"ancestorsHash","type":"bytes32","internalType":"bytes32"}]}],"stateMutability":"view"},{"type":"function","name":"getDesignatedProver","inputs":[{"name":"_proposalId","type":"uint48","internalType":"uint48"},{"name":"_proposer","type":"address","internalType":"address"},{"name":"_proverAuth","type":"bytes","internalType":"bytes"},{"name":"_currentDesignatedProver","type":"address","internalType":"address"}],"outputs":[{"name":"isLowBondProposal_","type":"bool","internalType":"bool"},{"name":"designatedProver_","type":"address","internalType":"address"},{"name":"provingFeeToTransfer_","type":"uint256","internalType":"uint256"}],"stateMutability":"view"},{"type":"function","name":"getProposalState","inputs":[],"outputs":[{"name":"","type":"tuple","internalType":"struct Anchor.ProposalState","components":[{"name":"bondInstructionsHash","type":"bytes32","internalType":"bytes32"},{"name":"designatedProver","type":"address","internalType":"address"},{"name":"isLowBondProposal","type":"bool","internalType":"bool"}]}],"stateMutability":"view"},{"type":"function","name":"l1ChainId","inputs":[],"outputs":[{"name":"","type":"uint64","internalType":"uint64"}],"stateMutability":"view"},{"type":"function","name":"livenessBond","inputs":[],"outputs":[{"name":"","type":"uint256","internalType":"uint256"}],"stateMutability":"view"},{"type":"function","name":"owner","inputs":[],"outputs":[{"name":"","type":"address","internalType":"address"}],"stateMutability":"view"},{"type":"function","name":"pendingOwner","inputs":[],"outputs":[{"name":"","type":"address","internalType":"address"}],"stateMutability":"view"},{"type":"function","name":"provabilityBond","inputs":[],"outputs":[{"name":"","type":"uint256","internalType":"uint256"}],"stateMutability":"view"},{"type":"function","name":"renounceOwnership","inputs":[],"outputs":[],"stateMutability":"nonpayable"},{"type":"function","name":"transferOwnership","inputs":[{"name":"newOwner","type":"address","internalType":"address"}],"outputs":[],"stateMutability":"nonpayable"},{"type":"function","name":"validateProverAuth","inputs":[{"name":"_proposalId","type":"uint48","internalType":"uint48"},{"name":"_proposer","type":"address","internalType":"address"},{"name":"_proverAuth","type":"bytes","internalType":"bytes"}],"outputs":[{"name":"signer_","type":"address","internalType":"address"},{"name":"provingFee_","type":"uint256","internalType":"uint256"}],"stateMutability":"pure"},{"type":"function","name":"withdraw","inputs":[{"name":"_token","type":"address","internalType":"address"},{"name":"_to","type":"address","internalType":"address"}],"outputs":[],"stateMutability":"nonpayable"},{"type":"event","name":"Anchored","inputs":[{"name":"bondInstructionsHash","type":"bytes32","indexed":false,"internalType":"bytes32"},{"name":"designatedProver","type":"address","indexed":false,"internalType":"address"},{"name":"isLowBondProposal","type":"bool","indexed":false,"internalType":"bool"},{"name":"anchorBlockNumber","type":"uint48","indexed":false,"internalType":"uint48"},{"name":"ancestorsHash","type":"bytes32","indexed":false,"internalType":"bytes32"}],"anonymous":false},{"type":"event","name":"OwnershipTransferStarted","inputs":[{"name":"previousOwner","type":"address","indexed":true,"internalType":"address"},{"name":"newOwner","type":"address","indexed":true,"internalType":"address"}],"anonymous":false},{"type":"event","name":"OwnershipTransferred","inputs":[{"name":"previousOwner","type":"address","indexed":true,"internalType":"address"},{"name":"newOwner","type":"address","indexed":true,"internalType":"address"}],"anonymous":false},{"type":"event","name":"Withdrawn","inputs":[{"name":"token","type":"address","indexed":false,"internalType":"address"},{"name":"to","type":"address","indexed":false,"internalType":"address"},{"name":"amount","type":"uint256","indexed":false,"internalType":"uint256"}],"anonymous":false},{"type":"error","name":"AncestorsHashMismatch","inputs":[]},{"type":"error","name":"BondInstructionsHashMismatch","inputs":[]},{"type":"error","name":"ETH_TRANSFER_FAILED","inputs":[]},{"type":"error","name":"InvalidAddress","inputs":[]},{"type":"error","name":"InvalidAnchorBlockNumber","inputs":[]},{"type":"error","name":"InvalidBlockIndex","inputs":[]},{"type":"error","name":"InvalidL1ChainId","inputs":[]},{"type":"error","name":"InvalidL2ChainId","inputs":[]},{"type":"error","name":"InvalidSender","inputs":[]},{"type":"error","name":"NonZeroAnchorBlockHash","inputs":[]},{"type":"error","name":"NonZeroAnchorStateRoot","inputs":[]},{"type":"error","name":"NonZeroBlockIndex","inputs":[]},{"type":"error","name":"ProposalIdMismatch","inputs":[]},{"type":"error","name":"ProposerMismatch","inputs":[]},{"type":"error","name":"ZeroBlockCount","inputs":[]}],"bytecode":{"object":"0x610120604052348015610010575f5ffd5b50604051611f59380380611f5983398101604081905261002f916101e2565b61003833610163565b60016002556001600160a01b0386166100645760405163e6c4247b60e01b815260040160405180910390fd5b6001600160a01b03851661008b5760405163e6c4247b60e01b815260040160405180910390fd5b6001600160a01b0381166100b25760405163e6c4247b60e01b815260040160405180910390fd5b6001600160401b038216158015906100d3575046826001600160401b031614155b6100f05760405163ca40667b60e01b815260040160405180910390fd5b60014611801561010757506001600160401b034611155b6101245760405163142d897560e31b815260040160405180910390fd5b6001600160a01b0380871660a052851660805260c084905260e08390526001600160401b0382166101005261015881610163565b50505050505061025d565b600180546001600160a01b031916905561017c8161017f565b50565b5f80546001600160a01b038381166001600160a01b0319831681178455604051919092169283917f8be0079c531659141344cd1fd0a4f28419497f9722a3daafe3b4186f6b6457e09190a35050565b6001600160a01b038116811461017c575f5ffd5b5f5f5f5f5f5f60c087890312156101f7575f5ffd5b8651610202816101ce565b6020880151909650610213816101ce565b6040880151606089015160808a015192975090955093506001600160401b038116811461023e575f5ffd5b60a088015190925061024f816101ce565b809150509295509295509295565b60805160a05160c05160e05161010051611c806102d95f395f61016f01525f818161035a01526113dc01525f818161038f015261139c01525f81816102220152610cbe01525f81816101ae015281816106ed015281816107be01528181610b0901528181610bd601528181610f310152610fe00152611c805ff3fe608060405234801561000f575f5ffd5b506004361061011c575f3560e01c8063a37ea515116100a9578063d44142211161006e578063d44142211461038a578063ddececb2146103b1578063e30c3978146103d4578063f2fde38b146103e5578063f940e385146103f8575f5ffd5b8063a37ea5151461025d578063aade375b1461028f578063b3d5e45f14610313578063c46e3a661461034b578063cf1a0f2214610355575f5ffd5b8063715018a6116100ef578063715018a6146101fd57806379ba5097146102055780638da5cb5b1461020d578063955a72441461021d5780639ee512f214610244575f5ffd5b80630f439bd91461012057806312622e5b1461016a578063363cc427146101a95780634e60c8bb146101e8575b5f5ffd5b6040805180820182525f8082526020918201528151808301835260095465ffffffffffff16808252600a549183019182528351908152905191810191909152015b60405180910390f35b6101917f000000000000000000000000000000000000000000000000000000000000000081565b6040516001600160401b039091168152602001610161565b6101d07f000000000000000000000000000000000000000000000000000000000000000081565b6040516001600160a01b039091168152602001610161565b6101fb6101f63660046115ea565b61040b565b005b6101fb6104f1565b6101fb610504565b5f546001600160a01b03166101d0565b6101d07f000000000000000000000000000000000000000000000000000000000000000081565b6101d071777735367b36bc9b61c50022d9d0700db4ec81565b61027061026b3660046116b0565b610583565b604080516001600160a01b039093168352602083019190915201610161565b6102e6604080516060810182525f8082526020820181905291810191909152506040805160608101825260075481526008546001600160a01b0381166020830152600160a01b900460ff1615159181019190915290565b60408051825181526020808401516001600160a01b03169082015291810151151590820152606001610161565b61032661032136600461170c565b6106ae565b6040805193151584526001600160a01b03909216602084015290820152606001610161565b610191620f424081565b61037c7f000000000000000000000000000000000000000000000000000000000000000081565b604051908152602001610161565b61037c7f000000000000000000000000000000000000000000000000000000000000000081565b6103c46103bf3660046118b1565b610851565b6040519015158152602001610161565b6001546001600160a01b03166101d0565b6101fb6103f336600461190a565b610891565b6101fb610406366004611923565b610901565b3371777735367b36bc9b61c50022d9d0700db4ec1461043d57604051636edaef2f60e11b815260040160405180910390fd5b610445610a33565b6104526020820182611954565b61ffff165f036104655761046582610a8a565b61046e81610c55565b600754600854600954600a54604080519485526001600160a01b0384166020860152600160a01b90930460ff1615159284019290925265ffffffffffff16606083015260808201527fabe1ab2ba22c672adbc29e35de36db78e8b2d2ce5d60026329d52da5f31e97349060a00160405180910390a16104ed6001600255565b5050565b6104f9610dca565b6105025f610e23565b565b60015433906001600160a01b031681146105775760405162461bcd60e51b815260206004820152602960248201527f4f776e61626c6532537465703a2063616c6c6572206973206e6f7420746865206044820152683732bb9037bbb732b960b91b60648201526084015b60405180910390fd5b61058081610e23565b50565b5f8060e183101561059857508390505f6106a5565b5f6105a58486018661197c565b90506105b2818888610851565b6105c257855f92509250506106a5565b6041816060015151146105db57855f92509250506106a5565b5f5f61063e610634848051602080830151604093840151845165ffffffffffff909416848401526001600160a01b0390911683850152606080840191909152835180840390910181526080909201909252805191012090565b8460600151610e3c565b90925090505f816004811115610656576106566119ad565b14158061066a57506001600160a01b038216155b1561067d57875f945094505050506106a5565b819450876001600160a01b0316856001600160a01b0316146106a157826040015193505b5050505b94509492505050565b5f5f5f5f5f6106bf8a8a8a8a610583565b60405163508b724360e11b81526001600160a01b038c81166004830152602482018390529294509092505f917f0000000000000000000000000000000000000000000000000000000000000000169063a116e48690604401602060405180830381865afa158015610732573d5f5f3e3d5ffd5b505050506040513d601f19601f8201168201806040525081019061075691906119c1565b90508061076f576001875f955095509550505050610846565b896001600160a01b0316836001600160a01b031603610799575f8a5f955095509550505050610846565b60405163508b724360e11b81526001600160a01b0384811660048301525f60248301527f0000000000000000000000000000000000000000000000000000000000000000169063a116e48690604401602060405180830381865afa158015610803573d5f5f3e3d5ffd5b505050506040513d601f19601f8201168201806040525081019061082791906119c1565b61083c575f8a5f955095509550505050610846565b505f945090925090505b955095509592505050565b5f8265ffffffffffff16845f015165ffffffffffff161480156108895750816001600160a01b031684602001516001600160a01b0316145b949350505050565b610899610dca565b600180546001600160a01b0383166001600160a01b031990911681179091556108c95f546001600160a01b031690565b6001600160a01b03167f38d16b8cac22d99fc7c124b9cd0de2d3fa1faef420bfe791d8c362d765e2270060405160405180910390a350565b610909610dca565b610911610a33565b6001600160a01b0381166109385760405163e6c4247b60e01b815260040160405180910390fd5b5f6001600160a01b03831661096157504761095c6001600160a01b03831682610e7e565b6109dd565b6040516370a0823160e01b81523060048201526001600160a01b038416906370a0823190602401602060405180830381865afa1580156109a3573d5f5f3e3d5ffd5b505050506040513d601f19601f820116820180604052508101906109c791906119e0565b90506109dd6001600160a01b0384168383610e89565b604080516001600160a01b038086168252841660208201529081018290527fd1c19fbcd4551a5edfb66d43d2e337c04837afda3482b42bdf569a8fccdae5fb9060600160405180910390a1506104ed6001600255565b6002805403610a845760405162461bcd60e51b815260206004820152601f60248201527f5265656e7472616e637947756172643a207265656e7472616e742063616c6c00604482015260640161056e565b60028055565b5f610ac9610a9b60208401846119f7565b610aab604085016020860161190a565b610ab86040860186611a10565b6008546001600160a01b03166106ae565b60088054931515600160a01b026001600160a81b03199094166001600160a01b039093169290921792909217905590508015610c30576001600160a01b037f00000000000000000000000000000000000000000000000000000000000000001663391396de610b3e604085016020860161190a565b6040516001600160e01b031960e084901b1681526001600160a01b039091166004820152602481018490526044016020604051808303815f875af1158015610b88573d5f5f3e3d5ffd5b505050506040513d601f19601f82011682018060405250810190610bac91906119e0565b50600854604051632f8cb47d60e21b81526001600160a01b039182166004820152602481018390527f00000000000000000000000000000000000000000000000000000000000000009091169063be32d1f4906044015f604051808303815f87803b158015610c19575f5ffd5b505af1158015610c2b573d5f5f3e3d5ffd5b505050505b600754610c4e90610c446080850185611a52565b8560600135610edb565b6007555050565b5f5f610c5f6110c3565b600a54919350915015610c8e57600a548214610c8e576040516349645ffd60e01b815260040160405180910390fd5b600a81905560095465ffffffffffff16610cae60408501602086016119f7565b65ffffffffffff161115610dc5577f00000000000000000000000000000000000000000000000000000000000000006001600160a01b031663c9a0b8c86040518060600160405280866020016020810190610d0991906119f7565b65ffffffffffff1681526020018660400135815260200186606001358152506040518263ffffffff1660e01b8152600401610d689190815165ffffffffffff168152602080830151908201526040918201519181019190915260600190565b5f604051808303815f87803b158015610d7f575f5ffd5b505af1158015610d91573d5f5f3e3d5ffd5b50610da69250505060408401602085016119f7565b6009805465ffffffffffff191665ffffffffffff929092169190911790555b505050565b5f546001600160a01b031633146105025760405162461bcd60e51b815260206004820181905260248201527f4f776e61626c653a2063616c6c6572206973206e6f7420746865206f776e6572604482015260640161056e565b600180546001600160a01b031916905561058081611160565b5f5f8251604103610e70576020830151604084015160608501515f1a610e64878285856111af565b94509450505050610e77565b505f905060025b9250929050565b6104ed82825a611269565b604080516001600160a01b038416602482015260448082018490528251808303909101815260649091019091526020810180516001600160e01b031663a9059cbb60e01b179052610dc59084906112ac565b83825f5b818110156110995736868683818110610efa57610efa611a97565b90506080020190505f610f1e826020016020810190610f199190611ab9565b61137f565b90508015611072575f6001600160a01b037f00000000000000000000000000000000000000000000000000000000000000001663391396de610f66606086016040870161190a565b6040516001600160e01b031960e084901b1681526001600160a01b039091166004820152602481018590526044016020604051808303815f875af1158015610fb0573d5f5f3e3d5ffd5b505050506040513d601f19601f82011682018060405250810190610fd491906119e0565b90506001600160a01b037f00000000000000000000000000000000000000000000000000000000000000001663be32d1f4611015608086016060870161190a565b6040516001600160e01b031960e084901b1681526001600160a01b039091166004820152602481018490526044015f604051808303815f87803b15801561105a575f5ffd5b505af115801561106c573d5f5f3e3d5ffd5b50505050505b61108a8561108536859003850185611ad2565b611407565b94505050806001019050610edf565b508282146110ba576040516388c4700b60e01b815260040160405180910390fd5b50949350505050565b5f80806110d1600143611b31565b90506110db6115ca565b46611fe08201525f5b60ff811080156110f75750806001018310155b15611128575f198184030180408360ff8306610100811061111a5761111a611a97565b6020020152506001016110e4565b506120008120935081408161113e60ff85611b50565b610100811061114f5761114f611a97565b602002015261200090209293915050565b5f80546001600160a01b038381166001600160a01b0319831681178455604051919092169283917f8be0079c531659141344cd1fd0a4f28419497f9722a3daafe3b4186f6b6457e09190a35050565b5f807f7fffffffffffffffffffffffffffffff5d576e7357a4501ddfe92f46681b20a08311156111e457505f905060036106a5565b604080515f8082526020820180845289905260ff881692820192909252606081018690526080810185905260019060a0016020604051602081039080840390855afa158015611235573d5f5f3e3d5ffd5b5050604051601f1901519150506001600160a01b03811661125d575f600192509250506106a5565b965f9650945050505050565b815f0361127557505050565b61128f83838360405180602001604052805f815250611470565b610dc557604051634c67134d60e11b815260040160405180910390fd5b5f611300826040518060400160405280602081526020017f5361666545524332303a206c6f772d6c6576656c2063616c6c206661696c6564815250856001600160a01b03166114ad9092919063ffffffff16565b905080515f148061132057508080602001905181019061132091906119c1565b610dc55760405162461bcd60e51b815260206004820152602a60248201527f5361666545524332303a204552433230206f7065726174696f6e20646964206e6044820152691bdd081cdd58d8d9595960b21b606482015260840161056e565b5f6002826002811115611394576113946119ad565b036113c057507f0000000000000000000000000000000000000000000000000000000000000000919050565b60018260028111156113d4576113d46119ad565b0361140057507f0000000000000000000000000000000000000000000000000000000000000000919050565b505f919050565b80515f9065ffffffffffff16158061143357505f82602001516002811115611431576114316119ad565b145b61146557828260405160200161144a929190611b6f565b60405160208183030381529060405280519060200120611467565b825b90505b92915050565b5f6001600160a01b03851661149857604051634c67134d60e11b815260040160405180910390fd5b5f5f835160208501878988f195945050505050565b606061088984845f85855f5f866001600160a01b031685876040516114d29190611bfd565b5f6040518083038185875af1925050503d805f811461150c576040519150601f19603f3d011682016040523d82523d5f602084013e611511565b606091505b50915091506115228783838761152d565b979650505050505050565b6060831561159b5782515f03611594576001600160a01b0385163b6115945760405162461bcd60e51b815260206004820152601d60248201527f416464726573733a2063616c6c20746f206e6f6e2d636f6e7472616374000000604482015260640161056e565b5081610889565b61088983838151156115b05781518083602001fd5b8060405162461bcd60e51b815260040161056e9190611c18565b604051806120000160405280610100906020820280368337509192915050565b5f5f82840360a08112156115fc575f5ffd5b83356001600160401b03811115611611575f5ffd5b840160a08187031215611622575f5ffd5b92506080601f1982011215611635575f5ffd5b506020830190509250929050565b803565ffffffffffff81168114611658575f5ffd5b919050565b80356001600160a01b0381168114611658575f5ffd5b5f5f83601f840112611683575f5ffd5b5081356001600160401b03811115611699575f5ffd5b602083019150836020828501011115610e77575f5ffd5b5f5f5f5f606085870312156116c3575f5ffd5b6116cc85611643565b93506116da6020860161165d565b925060408501356001600160401b038111156116f4575f5ffd5b61170087828801611673565b95989497509550505050565b5f5f5f5f5f60808688031215611720575f5ffd5b61172986611643565b94506117376020870161165d565b935060408601356001600160401b03811115611751575f5ffd5b61175d88828901611673565b909450925061177090506060870161165d565b90509295509295909350565b634e487b7160e01b5f52604160045260245ffd5b604051608081016001600160401b03811182821017156117b2576117b261177c565b60405290565b604051601f8201601f191681016001600160401b03811182821017156117e0576117e061177c565b604052919050565b5f608082840312156117f8575f5ffd5b611800611790565b905061180b82611643565b81526118196020830161165d565b60208201526040820135604082015260608201356001600160401b03811115611840575f5ffd5b8201601f81018413611850575f5ffd5b80356001600160401b038111156118695761186961177c565b61187c601f8201601f19166020016117b8565b818152856020838501011115611890575f5ffd5b816020840160208301375f6020838301015280606085015250505092915050565b5f5f5f606084860312156118c3575f5ffd5b83356001600160401b038111156118d8575f5ffd5b6118e4868287016117e8565b9350506118f360208501611643565b91506119016040850161165d565b90509250925092565b5f6020828403121561191a575f5ffd5b6114678261165d565b5f5f60408385031215611934575f5ffd5b61193d8361165d565b915061194b6020840161165d565b90509250929050565b5f60208284031215611964575f5ffd5b813561ffff81168114611975575f5ffd5b9392505050565b5f6020828403121561198c575f5ffd5b81356001600160401b038111156119a1575f5ffd5b610889848285016117e8565b634e487b7160e01b5f52602160045260245ffd5b5f602082840312156119d1575f5ffd5b81518015158114611975575f5ffd5b5f602082840312156119f0575f5ffd5b5051919050565b5f60208284031215611a07575f5ffd5b61146782611643565b5f5f8335601e19843603018112611a25575f5ffd5b8301803591506001600160401b03821115611a3e575f5ffd5b602001915036819003821315610e77575f5ffd5b5f5f8335601e19843603018112611a67575f5ffd5b8301803591506001600160401b03821115611a80575f5ffd5b6020019150600781901b3603821315610e77575f5ffd5b634e487b7160e01b5f52603260045260245ffd5b803560038110611658575f5ffd5b5f60208284031215611ac9575f5ffd5b61146782611aab565b5f6080828403128015611ae3575f5ffd5b50611aec611790565b611af583611643565b8152611b0360208401611aab565b6020820152611b146040840161165d565b6040820152611b256060840161165d565b60608201529392505050565b8181038181111561146a57634e487b7160e01b5f52601160045260245ffd5b5f82611b6a57634e487b7160e01b5f52601260045260245ffd5b500690565b5f60a08201905083825265ffffffffffff8351166020830152602083015160038110611ba957634e487b7160e01b5f52602160045260245ffd5b6040838101919091528301516001600160a01b0390811660608085019190915290930151909216608090910152919050565b5f5b83811015611bf5578181015183820152602001611bdd565b50505f910152565b5f8251611c0e818460208701611bdb565b9190910192915050565b602081525f8251806020840152611c36816040850160208701611bdb565b601f01601f1916919091016040019291505056fea2646970667358221220e57ae0c24a90274041c24cfd0ec993f925a63ad10408e5d9e7a87c1394e49f5c64736f6c634300081e0033","linkReferences":{}},"methodIdentifiers":{"ANCHOR_GAS_LIMIT()":"c46e3a66","GOLDEN_TOUCH_ADDRESS()":"9ee512f2","_isMatchingProverAuthContext((uint48,address,uint256,bytes),uint48,address)":"ddececb2","acceptOwnership()":"79ba5097","anchorV4((uint48,address,bytes,bytes32,(uint48,uint8,address,address)[]),(uint16,uint48,bytes32,bytes32))":"4e60c8bb","bondManager()":"363cc427","checkpointStore()":"955a7244","getBlockState()":"0f439bd9","getDesignatedProver(uint48,address,bytes,address)":"b3d5e45f","getProposalState()":"aade375b","l1ChainId()":"12622e5b","livenessBond()":"d4414221","owner()":"8da5cb5b","pendingOwner()":"e30c3978","provabilityBond()":"cf1a0f22","renounceOwnership()":"715018a6","transferOwnership(address)":"f2fde38b","validateProverAuth(uint48,address,bytes)":"a37ea515","withdraw(address,address)":"f940e385"},"storageLayout":{"storage":[{"astId":19952,"contract":"contracts/layer2/core/Anchor.sol:Anchor","label":"_owner","offset":0,"slot":"0","type":"t_address"},{"astId":20065,"contract":"contracts/layer2/core/Anchor.sol:Anchor","label":"_pendingOwner","offset":0,"slot":"1","type":"t_address"},{"astId":21024,"contract":"contracts/layer2/core/Anchor.sol:Anchor","label":"_status","offset":0,"slot":"2","type":"t_uint256"},{"astId":443,"contract":"contracts/layer2/core/Anchor.sol:Anchor","label":"_pacayaSlots","offset":0,"slot":"3","type":"t_array(t_uint256)4_storage"},{"astId":447,"contract":"contracts/layer2/core/Anchor.sol:Anchor","label":"_proposalState","offset":0,"slot":"7","type":"t_struct(ProposalState)399_storage"},{"astId":451,"contract":"contracts/layer2/core/Anchor.sol:Anchor","label":"_blockState","offset":0,"slot":"9","type":"t_struct(BlockState)405_storage"},{"astId":456,"contract":"contracts/layer2/core/Anchor.sol:Anchor","label":"__gap","offset":0,"slot":"11","type":"t_array(t_uint256)42_storage"}],"types":{"t_address":{"encoding":"inplace","label":"address","numberOfBytes":"20"},"t_array(t_uint256)42_storage":{"encoding":"inplace","label":"uint256[42]","numberOfBytes":"1344","base":"t_uint256"},"t_array(t_uint256)4_storage":{"encoding":"inplace","label":"uint256[4]","numberOfBytes":"128","base":"t_uint256"},"t_bool":{"encoding":"inplace","label":"bool","numberOfBytes":"1"},"t_bytes32":{"encoding":"inplace","label":"bytes32","numberOfBytes":"32"},"t_struct(BlockState)405_storage":{"encoding":"inplace","label":"struct Anchor.BlockState","numberOfBytes":"64","members":[{"astId":402,"contract":"contracts/layer2/core/Anchor.sol:Anchor","label":"anchorBlockNumber","offset":0,"slot":"0","type":"t_uint48"},{"astId":404,"contract":"contracts/layer2/core/Anchor.sol:Anchor","label":"ancestorsHash","offset":0,"slot":"1","type":"t_bytes32"}]},"t_struct(ProposalState)399_storage":{"encoding":"inplace","label":"struct Anchor.ProposalState","numberOfBytes":"64","members":[{"astId":394,"contract":"contracts/layer2/core/Anchor.sol:Anchor","label":"bondInstructionsHash","offset":0,"slot":"0","type":"t_bytes32"},{"astId":396,"contract":"contracts/layer2/core/Anchor.sol:Anchor","label":"designatedProver","offset":0,"slot":"1","type":"t_address"},{"astId":398,"contract":"contracts/layer2/core/Anchor.sol:Anchor","label":"isLowBondProposal","offset":20,"slot":"1","type":"t_bool"}]},"t_uint256":{"encoding":"inplace","label":"uint256","numberOfBytes":"32"},"t_uint48":{"encoding":"inplace","label":"uint48","numberOfBytes":"6"}}},"id":2}