{"abi":[{"type":"constructor","inputs":[{"name":"_resolver","type":"address","internalType":"address"},{"name":"_signalService","type":"address","internalType":"address"}],"stateMutability":"nonpayable"},{"type":"function","name":"GAS_OVERHEAD","inputs":[],"outputs":[{"name":"","type":"uint32","internalType":"uint32"}],"stateMutability":"view"},{"type":"function","name":"GAS_RESERVE","inputs":[],"outputs":[{"name":"","type":"uint32","internalType":"uint32"}],"stateMutability":"view"},{"type":"function","name":"RELAYER_MAX_PROOF_BYTES","inputs":[],"outputs":[{"name":"","type":"uint256","internalType":"uint256"}],"stateMutability":"view"},{"type":"function","name":"acceptOwnership","inputs":[],"outputs":[],"stateMutability":"nonpayable"},{"type":"function","name":"context","inputs":[],"outputs":[{"name":"ctx_","type":"tuple","internalType":"struct IBridge.Context","components":[{"name":"msgHash","type":"bytes32","internalType":"bytes32"},{"name":"from","type":"address","internalType":"address"},{"name":"srcChainId","type":"uint64","internalType":"uint64"}]}],"stateMutability":"view"},{"type":"function","name":"failMessage","inputs":[{"name":"_message","type":"tuple","internalType":"struct IBridge.Message","components":[{"name":"id","type":"uint64","internalType":"uint64"},{"name":"fee","type":"uint64","internalType":"uint64"},{"name":"gasLimit","type":"uint32","internalType":"uint32"},{"name":"from","type":"address","internalType":"address"},{"name":"srcChainId","type":"uint64","internalType":"uint64"},{"name":"srcOwner","type":"address","internalType":"address"},{"name":"destChainId","type":"uint64","internalType":"uint64"},{"name":"destOwner","type":"address","internalType":"address"},{"name":"to","type":"address","internalType":"address"},{"name":"value","type":"uint256","internalType":"uint256"},{"name":"data","type":"bytes","internalType":"bytes"}]}],"outputs":[],"stateMutability":"nonpayable"},{"type":"function","name":"getMessageMinGasLimit","inputs":[{"name":"dataLength","type":"uint256","internalType":"uint256"}],"outputs":[{"name":"","type":"uint32","internalType":"uint32"}],"stateMutability":"pure"},{"type":"function","name":"hashMessage","inputs":[{"name":"_message","type":"tuple","internalType":"struct IBridge.Message","components":[{"name":"id","type":"uint64","internalType":"uint64"},{"name":"fee","type":"uint64","internalType":"uint64"},{"name":"gasLimit","type":"uint32","internalType":"uint32"},{"name":"from","type":"address","internalType":"address"},{"name":"srcChainId","type":"uint64","internalType":"uint64"},{"name":"srcOwner","type":"address","internalType":"address"},{"name":"destChainId","type":"uint64","internalType":"uint64"},{"name":"destOwner","type":"address","internalType":"address"},{"name":"to","type":"address","internalType":"address"},{"name":"value","type":"uint256","internalType":"uint256"},{"name":"data","type":"bytes","internalType":"bytes"}]}],"outputs":[{"name":"","type":"bytes32","internalType":"bytes32"}],"stateMutability":"pure"},{"type":"function","name":"impl","inputs":[],"outputs":[{"name":"","type":"address","internalType":"address"}],"stateMutability":"view"},{"type":"function","name":"inNonReentrant","inputs":[],"outputs":[{"name":"","type":"bool","internalType":"bool"}],"stateMutability":"view"},{"type":"function","name":"init","inputs":[{"name":"_owner","type":"address","internalType":"address"}],"outputs":[],"stateMutability":"nonpayable"},{"type":"function","name":"init2","inputs":[],"outputs":[],"stateMutability":"nonpayable"},{"type":"function","name":"isDestChainEnabled","inputs":[{"name":"_chainId","type":"uint64","internalType":"uint64"}],"outputs":[{"name":"enabled_","type":"bool","internalType":"bool"},{"name":"destBridge_","type":"address","internalType":"address"}],"stateMutability":"view"},{"type":"function","name":"isMessageFailed","inputs":[{"name":"_message","type":"tuple","internalType":"struct IBridge.Message","components":[{"name":"id","type":"uint64","internalType":"uint64"},{"name":"fee","type":"uint64","internalType":"uint64"},{"name":"gasLimit","type":"uint32","internalType":"uint32"},{"name":"from","type":"address","internalType":"address"},{"name":"srcChainId","type":"uint64","internalType":"uint64"},{"name":"srcOwner","type":"address","internalType":"address"},{"name":"destChainId","type":"uint64","internalType":"uint64"},{"name":"destOwner","type":"address","internalType":"address"},{"name":"to","type":"address","internalType":"address"},{"name":"value","type":"uint256","internalType":"uint256"},{"name":"data","type":"bytes","internalType":"bytes"}]},{"name":"_proof","type":"bytes","internalType":"bytes"}],"outputs":[{"name":"","type":"bool","internalType":"bool"}],"stateMutability":"view"},{"type":"function","name":"isMessageReceived","inputs":[{"name":"_message","type":"tuple","internalType":"struct IBridge.Message","components":[{"name":"id","type":"uint64","internalType":"uint64"},{"name":"fee","type":"uint64","internalType":"uint64"},{"name":"gasLimit","type":"uint32","internalType":"uint32"},{"name":"from","type":"address","internalType":"address"},{"name":"srcChainId","type":"uint64","internalType":"uint64"},{"name":"srcOwner","type":"address","internalType":"address"},{"name":"destChainId","type":"uint64","internalType":"uint64"},{"name":"destOwner","type":"address","internalType":"address"},{"name":"to","type":"address","internalType":"address"},{"name":"value","type":"uint256","internalType":"uint256"},{"name":"data","type":"bytes","internalType":"bytes"}]},{"name":"_proof","type":"bytes","internalType":"bytes"}],"outputs":[{"name":"","type":"bool","internalType":"bool"}],"stateMutability":"view"},{"type":"function","name":"isMessageSent","inputs":[{"name":"_message","type":"tuple","internalType":"struct IBridge.Message","components":[{"name":"id","type":"uint64","internalType":"uint64"},{"name":"fee","type":"uint64","internalType":"uint64"},{"name":"gasLimit","type":"uint32","internalType":"uint32"},{"name":"from","type":"address","internalType":"address"},{"name":"srcChainId","type":"uint64","internalType":"uint64"},{"name":"srcOwner","type":"address","internalType":"address"},{"name":"destChainId","type":"uint64","internalType":"uint64"},{"name":"destOwner","type":"address","internalType":"address"},{"name":"to","type":"address","internalType":"address"},{"name":"value","type":"uint256","internalType":"uint256"},{"name":"data","type":"bytes","internalType":"bytes"}]}],"outputs":[{"name":"","type":"bool","internalType":"bool"}],"stateMutability":"view"},{"type":"function","name":"messageStatus","inputs":[{"name":"msgHash","type":"bytes32","internalType":"bytes32"}],"outputs":[{"name":"status","type":"uint8","internalType":"enum IBridge.Status"}],"stateMutability":"view"},{"type":"function","name":"nextMessageId","inputs":[],"outputs":[{"name":"","type":"uint64","internalType":"uint64"}],"stateMutability":"view"},{"type":"function","name":"owner","inputs":[],"outputs":[{"name":"","type":"address","internalType":"address"}],"stateMutability":"view"},{"type":"function","name":"pause","inputs":[],"outputs":[],"stateMutability":"nonpayable"},{"type":"function","name":"paused","inputs":[],"outputs":[{"name":"","type":"bool","internalType":"bool"}],"stateMutability":"view"},{"type":"function","name":"pendingOwner","inputs":[],"outputs":[{"name":"","type":"address","internalType":"address"}],"stateMutability":"view"},{"type":"function","name":"processMessage","inputs":[{"name":"_message","type":"tuple","internalType":"struct IBridge.Message","components":[{"name":"id","type":"uint64","internalType":"uint64"},{"name":"fee","type":"uint64","internalType":"uint64"},{"name":"gasLimit","type":"uint32","internalType":"uint32"},{"name":"from","type":"address","internalType":"address"},{"name":"srcChainId","type":"uint64","internalType":"uint64"},{"name":"srcOwner","type":"address","internalType":"address"},{"name":"destChainId","type":"uint64","internalType":"uint64"},{"name":"destOwner","type":"address","internalType":"address"},{"name":"to","type":"address","internalType":"address"},{"name":"value","type":"uint256","internalType":"uint256"},{"name":"data","type":"bytes","internalType":"bytes"}]},{"name":"_proof","type":"bytes","internalType":"bytes"}],"outputs":[{"name":"status_","type":"uint8","internalType":"enum IBridge.Status"},{"name":"reason_","type":"uint8","internalType":"enum IBridge.StatusReason"}],"stateMutability":"nonpayable"},{"type":"function","name":"proxiableUUID","inputs":[],"outputs":[{"name":"","type":"bytes32","internalType":"bytes32"}],"stateMutability":"view"},{"type":"function","name":"recallMessage","inputs":[{"name":"_message","type":"tuple","internalType":"struct IBridge.Message","components":[{"name":"id","type":"uint64","internalType":"uint64"},{"name":"fee","type":"uint64","internalType":"uint64"},{"name":"gasLimit","type":"uint32","internalType":"uint32"},{"name":"from","type":"address","internalType":"address"},{"name":"srcChainId","type":"uint64","internalType":"uint64"},{"name":"srcOwner","type":"address","internalType":"address"},{"name":"destChainId","type":"uint64","internalType":"uint64"},{"name":"destOwner","type":"address","internalType":"address"},{"name":"to","type":"address","internalType":"address"},{"name":"value","type":"uint256","internalType":"uint256"},{"name":"data","type":"bytes","internalType":"bytes"}]},{"name":"_proof","type":"bytes","internalType":"bytes"}],"outputs":[],"stateMutability":"nonpayable"},{"type":"function","name":"renounceOwnership","inputs":[],"outputs":[],"stateMutability":"nonpayable"},{"type":"function","name":"resolver","inputs":[],"outputs":[{"name":"","type":"address","internalType":"address"}],"stateMutability":"view"},{"type":"function","name":"retryMessage","inputs":[{"name":"_message","type":"tuple","internalType":"struct IBridge.Message","components":[{"name":"id","type":"uint64","internalType":"uint64"},{"name":"fee","type":"uint64","internalType":"uint64"},{"name":"gasLimit","type":"uint32","internalType":"uint32"},{"name":"from","type":"address","internalType":"address"},{"name":"srcChainId","type":"uint64","internalType":"uint64"},{"name":"srcOwner","type":"address","internalType":"address"},{"name":"destChainId","type":"uint64","internalType":"uint64"},{"name":"destOwner","type":"address","internalType":"address"},{"name":"to","type":"address","internalType":"address"},{"name":"value","type":"uint256","internalType":"uint256"},{"name":"data","type":"bytes","internalType":"bytes"}]},{"name":"_isLastAttempt","type":"bool","internalType":"bool"}],"outputs":[],"stateMutability":"nonpayable"},{"type":"function","name":"sendMessage","inputs":[{"name":"_message","type":"tuple","internalType":"struct IBridge.Message","components":[{"name":"id","type":"uint64","internalType":"uint64"},{"name":"fee","type":"uint64","internalType":"uint64"},{"name":"gasLimit","type":"uint32","internalType":"uint32"},{"name":"from","type":"address","internalType":"address"},{"name":"srcChainId","type":"uint64","internalType":"uint64"},{"name":"srcOwner","type":"address","internalType":"address"},{"name":"destChainId","type":"uint64","internalType":"uint64"},{"name":"destOwner","type":"address","internalType":"address"},{"name":"to","type":"address","internalType":"address"},{"name":"value","type":"uint256","internalType":"uint256"},{"name":"data","type":"bytes","internalType":"bytes"}]}],"outputs":[{"name":"msgHash_","type":"bytes32","internalType":"bytes32"},{"name":"message_","type":"tuple","internalType":"struct IBridge.Message","components":[{"name":"id","type":"uint64","internalType":"uint64"},{"name":"fee","type":"uint64","internalType":"uint64"},{"name":"gasLimit","type":"uint32","internalType":"uint32"},{"name":"from","type":"address","internalType":"address"},{"name":"srcChainId","type":"uint64","internalType":"uint64"},{"name":"srcOwner","type":"address","internalType":"address"},{"name":"destChainId","type":"uint64","internalType":"uint64"},{"name":"destOwner","type":"address","internalType":"address"},{"name":"to","type":"address","internalType":"address"},{"name":"value","type":"uint256","internalType":"uint256"},{"name":"data","type":"bytes","internalType":"bytes"}]}],"stateMutability":"payable"},{"type":"function","name":"signalForFailedMessage","inputs":[{"name":"_msgHash","type":"bytes32","internalType":"bytes32"}],"outputs":[{"name":"","type":"bytes32","internalType":"bytes32"}],"stateMutability":"pure"},{"type":"function","name":"signalService","inputs":[],"outputs":[{"name":"","type":"address","internalType":"contract ISignalService"}],"stateMutability":"view"},{"type":"function","name":"transferOwnership","inputs":[{"name":"newOwner","type":"address","internalType":"address"}],"outputs":[],"stateMutability":"nonpayable"},{"type":"function","name":"unpause","inputs":[],"outputs":[],"stateMutability":"nonpayable"},{"type":"function","name":"upgradeTo","inputs":[{"name":"newImplementation","type":"address","internalType":"address"}],"outputs":[],"stateMutability":"nonpayable"},{"type":"function","name":"upgradeToAndCall","inputs":[{"name":"newImplementation","type":"address","internalType":"address"},{"name":"data","type":"bytes","internalType":"bytes"}],"outputs":[],"stateMutability":"payable"},{"type":"event","name":"AdminChanged","inputs":[{"name":"previousAdmin","type":"address","indexed":false,"internalType":"address"},{"name":"newAdmin","type":"address","indexed":false,"internalType":"address"}],"anonymous":false},{"type":"event","name":"BeaconUpgraded","inputs":[{"name":"beacon","type":"address","indexed":true,"internalType":"address"}],"anonymous":false},{"type":"event","name":"Initialized","inputs":[{"name":"version","type":"uint8","indexed":false,"internalType":"uint8"}],"anonymous":false},{"type":"event","name":"MessageProcessed","inputs":[{"name":"msgHash","type":"bytes32","indexed":true,"internalType":"bytes32"},{"name":"message","type":"tuple","indexed":false,"internalType":"struct IBridge.Message","components":[{"name":"id","type":"uint64","internalType":"uint64"},{"name":"fee","type":"uint64","internalType":"uint64"},{"name":"gasLimit","type":"uint32","internalType":"uint32"},{"name":"from","type":"address","internalType":"address"},{"name":"srcChainId","type":"uint64","internalType":"uint64"},{"name":"srcOwner","type":"address","internalType":"address"},{"name":"destChainId","type":"uint64","internalType":"uint64"},{"name":"destOwner","type":"address","internalType":"address"},{"name":"to","type":"address","internalType":"address"},{"name":"value","type":"uint256","internalType":"uint256"},{"name":"data","type":"bytes","internalType":"bytes"}]},{"name":"stats","type":"tuple","indexed":false,"internalType":"struct Bridge.ProcessingStats","components":[{"name":"gasUsedInFeeCalc","type":"uint32","internalType":"uint32"},{"name":"proofSize","type":"uint32","internalType":"uint32"},{"name":"numCacheOps","type":"uint32","internalType":"uint32"},{"name":"processedByRelayer","type":"bool","internalType":"bool"}]}],"anonymous":false},{"type":"event","name":"MessageSent","inputs":[{"name":"msgHash","type":"bytes32","indexed":true,"internalType":"bytes32"},{"name":"message","type":"tuple","indexed":false,"internalType":"struct IBridge.Message","components":[{"name":"id","type":"uint64","internalType":"uint64"},{"name":"fee","type":"uint64","internalType":"uint64"},{"name":"gasLimit","type":"uint32","internalType":"uint32"},{"name":"from","type":"address","internalType":"address"},{"name":"srcChainId","type":"uint64","internalType":"uint64"},{"name":"srcOwner","type":"address","internalType":"address"},{"name":"destChainId","type":"uint64","internalType":"uint64"},{"name":"destOwner","type":"address","internalType":"address"},{"name":"to","type":"address","internalType":"address"},{"name":"value","type":"uint256","internalType":"uint256"},{"name":"data","type":"bytes","internalType":"bytes"}]}],"anonymous":false},{"type":"event","name":"MessageStatusChanged","inputs":[{"name":"msgHash","type":"bytes32","indexed":true,"internalType":"bytes32"},{"name":"status","type":"uint8","indexed":false,"internalType":"enum IBridge.Status"}],"anonymous":false},{"type":"event","name":"OwnershipTransferStarted","inputs":[{"name":"previousOwner","type":"address","indexed":true,"internalType":"address"},{"name":"newOwner","type":"address","indexed":true,"internalType":"address"}],"anonymous":false},{"type":"event","name":"OwnershipTransferred","inputs":[{"name":"previousOwner","type":"address","indexed":true,"internalType":"address"},{"name":"newOwner","type":"address","indexed":true,"internalType":"address"}],"anonymous":false},{"type":"event","name":"Paused","inputs":[{"name":"account","type":"address","indexed":false,"internalType":"address"}],"anonymous":false},{"type":"event","name":"Unpaused","inputs":[{"name":"account","type":"address","indexed":false,"internalType":"address"}],"anonymous":false},{"type":"event","name":"Upgraded","inputs":[{"name":"implementation","type":"address","indexed":true,"internalType":"address"}],"anonymous":false},{"type":"error","name":"ACCESS_DENIED","inputs":[]},{"type":"error","name":"B_INSUFFICIENT_GAS","inputs":[]},{"type":"error","name":"B_INVALID_CHAINID","inputs":[]},{"type":"error","name":"B_INVALID_CONTEXT","inputs":[]},{"type":"error","name":"B_INVALID_FEE","inputs":[]},{"type":"error","name":"B_INVALID_GAS_LIMIT","inputs":[]},{"type":"error","name":"B_INVALID_STATUS","inputs":[]},{"type":"error","name":"B_INVALID_VALUE","inputs":[]},{"type":"error","name":"B_MESSAGE_NOT_SENT","inputs":[]},{"type":"error","name":"B_PERMISSION_DENIED","inputs":[]},{"type":"error","name":"B_PROOF_TOO_LARGE","inputs":[]},{"type":"error","name":"B_RETRY_FAILED","inputs":[]},{"type":"error","name":"B_SIGNAL_NOT_RECEIVED","inputs":[]},{"type":"error","name":"ETH_TRANSFER_FAILED","inputs":[]},{"type":"error","name":"FUNC_NOT_IMPLEMENTED","inputs":[]},{"type":"error","name":"INVALID_PAUSE_STATUS","inputs":[]},{"type":"error","name":"REENTRANT_CALL","inputs":[]},{"type":"error","name":"RESOLVER_NOT_FOUND","inputs":[]},{"type":"error","name":"ZERO_ADDRESS","inputs":[]},{"type":"error","name":"ZERO_VALUE","inputs":[]}],"bytecode":{"object":"0x60e060405230608052348015610013575f5ffd5b5060405161379838038061379883398101604081905261003291610151565b8161003b61007a565b6001600160a01b03811661006257604051634b6f57f560e01b815260040160405180910390fd5b6001600160a01b0390811660a0521660c05250610182565b5f54610100900460ff16156100e55760405162461bcd60e51b815260206004820152602760248201527f496e697469616c697a61626c653a20636f6e747261637420697320696e697469604482015266616c697a696e6760c81b606482015260840160405180910390fd5b5f5460ff90811614610134575f805460ff191660ff9081179091556040519081527f7f26b83ff96e1f2b6a682f133852f6798a09c465da95921460cefb38474024989060200160405180910390a15b565b80516001600160a01b038116811461014c575f5ffd5b919050565b5f5f60408385031215610162575f5ffd5b61016b83610136565b915061017960208401610136565b90509250929050565b60805160a05160c05161357c61021c5f395f8181610439015281816107310152818161085901528181610d0401528181610f0a01528181610f530152818161149401528181611514015281816117b7015281816118bb0152818161194e0152611abb01525f818161022f015261252d01525f81816111e9015281816112290152818161130b0152818161134b01526113c2015261357c5ff3fe6080604052600436106101fc575f3560e01c8063715018a611610113578063a730cdfb1161009d578063d0496d6a1161006d578063d0496d6a146105e2578063d1aaa5df1461062a578063e30c39781461064a578063eefbf17e14610667578063f2fde38b146106a5575f5ffd5b8063a730cdfb14610578578063b8acae0e1461058e578063be880c81146105ad578063c012fa77146105c3575f5ffd5b80638abf6077116100e35780638abf6077146104cb5780638da5cb5b146104df5780638e3881a9146104fc578063913b16cb1461053a5780639efc7a2e14610559575f5ffd5b8063715018a61461045b57806379ba50971461046f5780637cbadfaa146104835780638456cb59146104b7575f5ffd5b80633c6cf4731161019457806352d1902d1161016457806352d1902d146103b65780635862f6e1146103ca5780635c975abb146103e957806360620c6b1461040957806362d0945314610428575f5ffd5b80633c6cf473146103305780633f4ba83a1461036b578063422770fa1461037f5780634f1ef286146103a3575f5ffd5b80631bdb0037116101cf5780631bdb00371461029f5780632035065e146102c05780633075db56146102ed5780633659cfe614610311575f5ffd5b80630432873c1461020057806304f3bcec14610221578063069489a21461026c57806319ab453c14610280575b5f5ffd5b34801561020b575f5ffd5b5061021f61021a3660046129c9565b6106c4565b005b34801561022c575f5ffd5b507f00000000000000000000000000000000000000000000000000000000000000005b6040516001600160a01b0390911681526020015b60405180910390f35b348015610277575f5ffd5b5061021f6108fc565b34801561028b575f5ffd5b5061021f61029a366004612a3b565b6109b3565b6102b26102ad366004612a56565b610a79565b604051610263929190612be2565b3480156102cb575f5ffd5b506102df6102da366004612bfa565b610d8b565b604051610263929190612cb7565b3480156102f8575f5ffd5b506103016111c7565b6040519015158152602001610263565b34801561031c575f5ffd5b5061021f61032b366004612a3b565b6111df565b34801561033b575f5ffd5b5061035e61034a366004612ce2565b60fc6020525f908152604090205460ff1681565b6040516102639190612cf9565b348015610376575f5ffd5b5061021f6112a6565b34801561038a575f5ffd5b5061039562030d4081565b604051908152602001610263565b61021f6103b1366004612dcd565b611301565b3480156103c1575f5ffd5b506103956113b6565b3480156103d5575f5ffd5b506103016103e4366004612bfa565b611468565b3480156103f4575f5ffd5b5061030160c954610100900460ff1660021490565b348015610414575f5ffd5b50610301610423366004612a56565b6114e3565b348015610433575f5ffd5b5061024f7f000000000000000000000000000000000000000000000000000000000000000081565b348015610466575f5ffd5b5061021f6115b7565b34801561047a575f5ffd5b5061021f6115c8565b34801561048e575f5ffd5b506104a261049d366004612ce2565b61163f565b60405163ffffffff9091168152602001610263565b3480156104c2575f5ffd5b5061021f61165d565b3480156104d6575f5ffd5b5061024f6116b2565b3480156104ea575f5ffd5b506033546001600160a01b031661024f565b348015610507575f5ffd5b5061051b610516366004612e2f565b6116c0565b6040805192151583526001600160a01b03909116602083015201610263565b348015610545575f5ffd5b5061021f610554366004612a56565b6116ec565b348015610564575f5ffd5b5061021f610573366004612bfa565b61183a565b348015610583575f5ffd5b506104a26201d4c081565b348015610599575f5ffd5b506103016105a8366004612bfa565b611a8f565b3480156105b8575f5ffd5b506104a2620c350081565b3480156105ce575f5ffd5b506103956105dd366004612f48565b611af6565b3480156105ed575f5ffd5b506105f6611b25565b60408051825181526020808401516001600160a01b031690820152918101516001600160401b031690820152606001610263565b348015610635575f5ffd5b50610395610644366004612ce2565b60031890565b348015610655575f5ffd5b506065546001600160a01b031661024f565b348015610672575f5ffd5b5060fb5461068d90600160401b90046001600160401b031681565b6040516001600160401b039091168152602001610263565b3480156106b0575f5ffd5b5061021f6106bf366004612a3b565b611bcc565b6106d460e0830160c08401612e2f565b6106dd81611c3d565b6106ed60a0840160808501612e2f565b6106f681611c66565b6106fe611ca2565b610706611cd4565b6107106002611d03565b5f61071d6105dd86612f79565b905061072a816001611d19565b5f610755867f0000000000000000000000000000000000000000000000000000000000000000611d6b565b156107a0576107998661012001356188b860405180602001604052805f8152508960e00160208101906107889190612a3b565b6001600160a01b0316929190611e62565b905061081a565b6107b06060870160408801612f84565b63ffffffff1615806107bf5750845b80156107ed57506107d7610100870160e08801612a3b565b6001600160a01b0316336001600160a01b031614155b1561080b576040516372b6e1c360e11b815260040160405180910390fd5b61081786835a5f611e9f565b90505b80156108305761082b826002611fc3565b6108ea565b84156108d157610841826003611fc3565b60405163019b28af60e61b81526003831860048201527f00000000000000000000000000000000000000000000000000000000000000006001600160a01b0316906366ca2bc0906024016020604051808303815f875af11580156108a7573d5f5f3e3d5ffd5b505050506040513d601f19601f820116820180604052508101906108cb9190612f9d565b506108ea565b60405163161e3ead60e01b815260040160405180910390fd5b50506108f66001611d03565b50505050565b610904612080565b5f54600290610100900460ff1615801561092457505f5460ff8083169116105b6109495760405162461bcd60e51b815260040161094090612fb4565b60405180910390fd5b5f805460fb805467ffffffffffffffff1916905560ff82815561010083815561ff001991851661ffff19909316831717169091556040519081527f7f26b83ff96e1f2b6a682f133852f6798a09c465da95921460cefb38474024989060200160405180910390a150565b5f54610100900460ff16158080156109d157505f54600160ff909116105b806109ea5750303b1580156109ea57505f5460ff166001145b610a065760405162461bcd60e51b815260040161094090612fb4565b5f805460ff191660011790558015610a27575f805461ff0019166101001790555b610a30826120da565b8015610a75575f805461ff0019169055604051600181527f7f26b83ff96e1f2b6a682f133852f6798a09c465da95921460cefb38474024989060200160405180910390a15b5050565b60408051610160810182525f8082526020820181905291810182905260608082018390526080820183905260a0820183905260c0820183905260e0820183905261010082018390526101208201839052610140820152610adf60c0840160a08501612a3b565b610ae881612138565b610af9610100850160e08601612a3b565b610b0281612138565b610b1461012086016101008701612a3b565b610b1d81612138565b610b2d60e0870160c08801612e2f565b610b3681611c66565b610b3e611ca2565b610b46611cd4565b610b506002611d03565b610b606060880160408901612f84565b63ffffffff165f03610ba857610b7c6040880160208901612e2f565b6001600160401b031615610ba35760405163c9f5178760e01b815260040160405180910390fd5b610bd0565b610bb18761215f565b5f03610bd0576040516308c2ad5360e01b815260040160405180910390fd5b5f610be461051660e08a0160c08b01612e2f565b50905080610c0557604051631c6c777560e31b815260040160405180910390fd5b34610c1660408a0160208b01612e2f565b610c2e906001600160401b03166101208b0135613016565b14610c4c57604051634ac2abdf60e11b815260040160405180910390fd5b610c5588612f79565b60fb8054919750600160401b9091046001600160401b0316906008610c7983613029565b82546101009290920a6001600160401b03818102199093169183160217909155908116875233606088015246166080870152610cb486611af6565b9650867fe33fd33b4f45b95b1c196242240c5b5233129d724b578f95b66ce8d8aae9351787604051610ce69190613053565b60405180910390a260405163019b28af60e61b8152600481018890527f00000000000000000000000000000000000000000000000000000000000000006001600160a01b0316906366ca2bc0906024016020604051808303815f875af1158015610d52573d5f5f3e3d5ffd5b505050506040513d601f19601f82011682018060405250810190610d769190612f9d565b5050610d826001611d03565b50505050915091565b5f5f610d95611ca2565b610d9d611cd4565b610da76002611d03565b5f5a905046610dbc60e0880160c08901612e2f565b6001600160401b031614610de357604051631c6c777560e31b815260040160405180910390fd5b610df360a0870160808801612e2f565b6001600160401b03161580610e1f575046610e1460a0880160808901612e2f565b6001600160401b0316145b15610e3d57604051631c6c777560e31b815260040160405180910390fd5b604080516080810182525f808252602082018190529181018290526060810191909152610e71610100880160e08901612a3b565b6001600160a01b0316331480156060830152610ee057610e976060880160408901612f84565b63ffffffff165f03610ebc576040516372b6e1c360e11b815260040160405180910390fd5b62030d40851115610ee057604051631e3b03c960e01b815260040160405180910390fd5b5f610eed6105dd89612f79565b9050610ef9815f611d19565b63ffffffff86166020830152610f417f000000000000000000000000000000000000000000000000000000000000000082610f3a60a08c0160808d01612e2f565b8a8a6121b2565b63ffffffff1660408301525f610f77897f0000000000000000000000000000000000000000000000000000000000000000611d6b565b15610f9057506002945060019350610120880135610fd7565b5f8360600151610fa0575a610fa9565b610fa98a61215f565b9050610fbb8a84838760600151611e9f565b15610fcc57600296505f9550610fd5565b60019650600295505b505b610fe760408a0160208b01612e2f565b6001600160401b0316156111455761100560408a0160208b01612e2f565b611018906001600160401b031682613016565b90508260600151801561103f575061103660608a0160408b01612f84565b63ffffffff1615155b1561114557604083015163ffffffff16614e20025a61107c6110656101408d018d613065565b6020601f909101819004026101a00160041b919050565b63ffffffff9081168701919091036201d4c00181168086525f9183916110a59183919061225d16565b0390505f6110b960608d0160408e01612f84565b63ffffffff166110cf60408e0160208f01612e2f565b6001600160401b03168302816110e7576110e76130ae565b0490505f48830290505f61112b8e60200160208101906111079190612e2f565b6001600160401b0316848410156111235784840160011c611125565b845b90612272565b9586900395905061113f33826188b8612286565b50505050505b61116d816188b861115d6101008d0160e08e01612a3b565b6001600160a01b03169190612286565b6111778287611fc3565b817f8580f507761043ecdd2bdca084d6fb0109150b3d9842d854d34e3dea6d69387d8a856040516111a9929190613246565b60405180910390a2505050506111bf6001611d03565b935093915050565b5f60026111d660c95460ff1690565b60ff1614905090565b6001600160a01b037f00000000000000000000000000000000000000000000000000000000000000001630036112275760405162461bcd60e51b81526004016109409061329a565b7f00000000000000000000000000000000000000000000000000000000000000006001600160a01b03166112596122c9565b6001600160a01b03161461127f5760405162461bcd60e51b8152600401610940906132e6565b611288816122e4565b604080515f808252602082019092526112a3918391906122ec565b50565b6112ae612456565b6112c260c9805461ff001916610100179055565b6040513381527f5db9ee0a495bf2e6ff9c91a7834c1ba4fdd244a5e8aa4e537bd38aeae4b073aa9060200160405180910390a16112ff335f612487565b565b6001600160a01b037f00000000000000000000000000000000000000000000000000000000000000001630036113495760405162461bcd60e51b81526004016109409061329a565b7f00000000000000000000000000000000000000000000000000000000000000006001600160a01b031661137b6122c9565b6001600160a01b0316146113a15760405162461bcd60e51b8152600401610940906132e6565b6113aa826122e4565b610a75828260016122ec565b5f306001600160a01b037f000000000000000000000000000000000000000000000000000000000000000016146114555760405162461bcd60e51b815260206004820152603860248201527f555550535570677261646561626c653a206d757374206e6f742062652063616c60448201527f6c6564207468726f7567682064656c656761746563616c6c00000000000000006064820152608401610940565b505f5160206135005f395f51905f525b90565b5f4661147a60a0860160808701612e2f565b6001600160401b03161461148f57505f6114dc565b6114d97f00000000000000000000000000000000000000000000000000000000000000006114c26106446105dd88612f79565b6114d260e0880160c08901612e2f565b868661248f565b90505b9392505050565b5f466114f560a0840160808501612e2f565b6001600160401b03161461150a57505f919050565b6001600160a01b037f0000000000000000000000000000000000000000000000000000000000000000166332676bc6306115466105dd86612f79565b6040516001600160e01b031960e085901b1681526001600160a01b0390921660048301526024820152604401602060405180830381865afa15801561158d573d5f5f3e3d5ffd5b505050506040513d601f19601f820116820180604052508101906115b19190613332565b92915050565b6115bf612080565b6112ff5f612511565b60655433906001600160a01b031681146116365760405162461bcd60e51b815260206004820152602960248201527f4f776e61626c6532537465703a2063616c6c6572206973206e6f7420746865206044820152683732bb9037bbb732b960b91b6064820152608401610940565b6112a381612511565b5f6115b1620c35006101a06020601f8601819004020160041b61334d565b611665611ca2565b60c9805461ff0019166102001790556040513381527f62e78cea01bee320cd4e420270b5ea74000d11b0c9f74754ebdbfc544b05a2589060200160405180910390a16112ff336001612487565b5f6116bb6122c9565b905090565b5f5f6116d7836562726964676560d01b600161252a565b6001600160a01b038116151594909350915050565b6116fc60e0820160c08301612e2f565b61170581611c3d565b61171560a0830160808401612e2f565b61171e81611c66565b611726611ca2565b61172e611cd4565b6117386002611d03565b611749610100840160e08501612a3b565b6001600160a01b0316336001600160a01b03161461177a576040516372b6e1c360e11b815260040160405180910390fd5b5f6117876105dd85612f79565b9050611794816001611d19565b61179f816003611fc3565b60405163019b28af60e61b81526003821860048201527f00000000000000000000000000000000000000000000000000000000000000006001600160a01b0316906366ca2bc0906024016020604051808303815f875af1158015611805573d5f5f3e3d5ffd5b505050506040513d601f19601f820116820180604052508101906118299190612f9d565b50506118356001611d03565b505050565b61184a60a0840160808501612e2f565b61185381611c3d565b61186360e0850160c08601612e2f565b61186c81611c66565b611874611ca2565b61187c611cd4565b6118866002611d03565b5f6118936105dd87612f79565b905061189f815f611d19565b604051631933b5e360e11b8152306004820152602481018290527f00000000000000000000000000000000000000000000000000000000000000006001600160a01b0316906332676bc690604401602060405180830381865afa158015611908573d5f5f3e3d5ffd5b505050506040513d601f19601f8201168201806040525081019061192c9190613332565b6119495760405163ab035ad560e01b815260040160405180910390fd5b6119887f00000000000000000000000000000000000000000000000000000000000000006003831861198160e08a0160c08b01612e2f565b88886121b2565b50611994816004611fc3565b6119bd62bc399d60e11b6119ae6080890160608a01612a3b565b6001600160a01b0316906125cc565b15611a61576119dc81306119d760a08a0160808b01612e2f565b61269c565b6119ec6080870160608801612a3b565b6001600160a01b0316630178733a87610120013588846040518463ffffffff1660e01b8152600401611a1f929190613369565b5f604051808303818588803b158015611a36575f5ffd5b505af1158015611a48573d5f5f3e3d5ffd5b5050505050611a5c5f195f1b5f198061269c565b611a7d565b611a7d6101208701356188b861115d60c08a0160a08b01612a3b565b50611a886001611d03565b5050505050565b5f46611aa160e0860160c08701612e2f565b6001600160401b031614611ab657505f6114dc565b6114d97f0000000000000000000000000000000000000000000000000000000000000000611ae66105dd87612f79565b6114d260a0880160808901612e2f565b5f81604051602001611b08919061338a565b604051602081830303815290604052805190602001209050919050565b604080516060810182525f8082526020820181905291810191909152611b9c604080516060810182525f8082526020820181905291810191909152506040805160608101825260fd54815260fe546001600160a01b0381166020830152600160a01b90046001600160401b03169181019190915290565b80519091501580611bae575080515f19145b1561146557604051635ceed17360e01b815260040160405180910390fd5b611bd4612080565b606580546001600160a01b0383166001600160a01b03199091168117909155611c056033546001600160a01b031690565b6001600160a01b03167f38d16b8cac22d99fc7c124b9cd0de2d3fa1faef420bfe791d8c362d765e2270060405160405180910390a350565b46816001600160401b0316146112a357604051631c6c777560e31b815260040160405180910390fd5b6001600160401b0381161580611c84575046816001600160401b0316145b156112a357604051631c6c777560e31b815260040160405180910390fd5b611cb660c954610100900460ff1660021490565b156112ff5760405163bae6e2a960e01b815260040160405180910390fd5b6002611ce260c95460ff1690565b60ff16036112ff5760405163dfc60d8560e01b815260040160405180910390fd5b60c9805460ff191660ff92909216919091179055565b806004811115611d2b57611d2b612c8f565b5f83815260fc602052604090205460ff166004811115611d4d57611d4d612c8f565b14610a75576040516319d893ad60e21b815260040160405180910390fd5b5f80611d7f61012085016101008601612a3b565b6001600160a01b031603611d95575060016115b1565b30611da861012085016101008601612a3b565b6001600160a01b031603611dbe575060016115b1565b6001600160a01b038216611dda61012085016101008601612a3b565b6001600160a01b031603611df0575060016115b1565b6004611e00610140850185613065565b905010158015611e375750637f07c94760e01b611e21610140850185613065565b611e2a916133c0565b6001600160e01b03191614155b80156114dc57506114dc611e5361012085016101008601612a3b565b6001600160a01b03163b151590565b5f6001600160a01b038516611e8a57604051634c67134d60e11b815260040160405180910390fd5b5f5f835160208501878988f195945050505050565b5f30611eb16080870160608801612a3b565b6001600160a01b031603611ec757611ec76133f8565b610120850135158015611ee75750611ee3610140860186613065565b1590505b15611ef457506001611fbb565b825f03611f0257505f611fbb565b611f2684611f166080880160608901612a3b565b6119d760a0890160808a01612e2f565b5f611f3961012087016101008801612a3b565b90506101208601355f611f50610140890189613065565b8080601f0160208091040260200160405190810160405280939291908181526020018383808284375f92018290525084519495509384935083925090506020850186888cf194505a90508515611faa57611faa81886126f1565b611fb65f19808061269c565b505050505b949350505050565b806004811115611fd557611fd5612c8f565b5f83815260fc602052604090205460ff166004811115611ff757611ff7612c8f565b03612015576040516319d893ad60e21b815260040160405180910390fd5b5f82815260fc60205260409020805482919060ff1916600183600481111561203f5761203f612c8f565b0217905550817f6c51882bc2ed67617f77a1e9b9a25d2caad8448647ecb093b357a603b2575634826040516120749190612cf9565b60405180910390a25050565b6033546001600160a01b031633146112ff5760405162461bcd60e51b815260206004820181905260248201527f4f776e61626c653a2063616c6c6572206973206e6f7420746865206f776e65726044820152606401610940565b5f54610100900460ff166121005760405162461bcd60e51b81526004016109409061340c565b612108612705565b6121266001600160a01b038216156121205781612511565b33612511565b5060c9805461ff001916610100179055565b6001600160a01b0381166112a35760405163538ba4f960e01b815260040160405180910390fd5b5f80612179612172610140850185613065565b905061163f565b63ffffffff169050806121aa6121956060860160408701612f84565b63ffffffff168361225d90919063ffffffff16565b039392505050565b5f856001600160a01b031663910af6ed856121d7876562726964676560d01b5f61252a565b8887876040518663ffffffff1660e01b81526004016121fa959493929190613457565b6020604051808303815f875af1925050508015612234575060408051601f3d908101601f1916820190925261223191810190612f9d565b60015b612251576040516314504c7360e31b815260040160405180910390fd5b90505b95945050505050565b5f81831161226b57816114dc565b5090919050565b5f81831161228057826114dc565b50919050565b815f0361229257505050565b6122ac83838360405180602001604052805f815250611e62565b61183557604051634c67134d60e11b815260040160405180910390fd5b5f5160206135005f395f51905f52546001600160a01b031690565b6112a3612080565b7f4910fdfa16fed3260ed0e7147f7cc6da11a60208b5b9406d12a635614ffd91435460ff161561231f576118358361272b565b826001600160a01b03166352d1902d6040518163ffffffff1660e01b8152600401602060405180830381865afa925050508015612379575060408051601f3d908101601f1916820190925261237691810190612f9d565b60015b6123dc5760405162461bcd60e51b815260206004820152602e60248201527f45524331393637557067726164653a206e657720696d706c656d656e7461746960448201526d6f6e206973206e6f74205555505360901b6064820152608401610940565b5f5160206135005f395f51905f52811461244a5760405162461bcd60e51b815260206004820152602960248201527f45524331393637557067726164653a20756e737570706f727465642070726f786044820152681a58589b195555525160ba1b6064820152608401610940565b506118358383836127c6565b61246a60c954610100900460ff1660021490565b6112ff5760405163bae6e2a960e01b815260040160405180910390fd5b610a75612080565b5f856001600160a01b031663ce9d0820856124b4876562726964676560d01b5f61252a565b8887876040518663ffffffff1660e01b81526004016124d7959493929190613457565b5f6040518083038186803b1580156124ed575f5ffd5b505afa9250505080156124fe575060015b61250957505f612254565b506001612254565b606580546001600160a01b03191690556112a3816127ea565b5f7f0000000000000000000000000000000000000000000000000000000000000000604051633632b1fb60e11b81526001600160401b03861660048201526024810185905283151560448201526001600160a01b039190911690636c6563f690606401602060405180830381865afa1580156125a8573d5f5f3e3d5ffd5b505050506040513d601f19601f820116820180604052508101906114d99190613498565b6040516001600160e01b0319821660248201525f90819081906001600160a01b0386169060440160408051601f198184030181529181526020820180516001600160e01b03166301ffc9a760e01b1790525161262891906134b3565b5f60405180830381855afa9150503d805f8114612660576040519150601f19603f3d011682016040523d82523d5f602084013e612665565b606091505b5091509150818015612678575080516020145b1561269457808060200190518101906126919190613332565b92505b505092915050565b604080516060810182528481526001600160a01b03909316602084018190526001600160401b03909216920182905260fd9290925560fe8054600160a01b9092026001600160e01b0319909216909217179055565b6126fc603f826134ce565b821015610a7557fe5b5f54610100900460ff166112ff5760405162461bcd60e51b81526004016109409061340c565b6001600160a01b0381163b6127985760405162461bcd60e51b815260206004820152602d60248201527f455243313936373a206e657720696d706c656d656e746174696f6e206973206e60448201526c1bdd08184818dbdb9d1c9858dd609a1b6064820152608401610940565b5f5160206135005f395f51905f5280546001600160a01b0319166001600160a01b0392909216919091179055565b6127cf8361283b565b5f825111806127db5750805b15611835576108f6838361287a565b603380546001600160a01b038381166001600160a01b0319831681179093556040519116919082907f8be0079c531659141344cd1fd0a4f28419497f9722a3daafe3b4186f6b6457e0905f90a35050565b6128448161272b565b6040516001600160a01b038216907fbc7cd75a20ee27fd9adebab32041f755214dbc6bffa90cc0225b39da2e5c2d3b905f90a250565b60606114dc83836040518060600160405280602781526020016135206027913960605f5f856001600160a01b0316856040516128b691906134b3565b5f60405180830381855af49150503d805f81146128ee576040519150601f19603f3d011682016040523d82523d5f602084013e6128f3565b606091505b50915091506129048683838761290e565b9695505050505050565b6060831561297c5782515f03612975576001600160a01b0385163b6129755760405162461bcd60e51b815260206004820152601d60248201527f416464726573733a2063616c6c20746f206e6f6e2d636f6e74726163740000006044820152606401610940565b5081611fbb565b611fbb83838151156129915781518083602001fd5b8060405162461bcd60e51b815260040161094091906134ed565b5f6101608284031215612280575f5ffd5b80151581146112a3575f5ffd5b5f5f604083850312156129da575f5ffd5b82356001600160401b038111156129ef575f5ffd5b6129fb858286016129ab565b9250506020830135612a0c816129bc565b809150509250929050565b6001600160a01b03811681146112a3575f5ffd5b8035612a3681612a17565b919050565b5f60208284031215612a4b575f5ffd5b81356114dc81612a17565b5f60208284031215612a66575f5ffd5b81356001600160401b03811115612a7b575f5ffd5b611fbb848285016129ab565b5f5b83811015612aa1578181015183820152602001612a89565b50505f910152565b5f8151808452612ac0816020860160208601612a87565b601f01601f19169290920160200192915050565b80516001600160401b031682525f6020820151612afc60208501826001600160401b03169052565b506040820151612b14604085018263ffffffff169052565b506060820151612b2f60608501826001600160a01b03169052565b506080820151612b4a60808501826001600160401b03169052565b5060a0820151612b6560a08501826001600160a01b03169052565b5060c0820151612b8060c08501826001600160401b03169052565b5060e0820151612b9b60e08501826001600160a01b03169052565b50610100820151612bb86101008501826001600160a01b03169052565b50610120820151610120840152610140820151610160610140850152611fbb610160850182612aa9565b828152604060208201525f6114d96040830184612ad4565b5f5f5f60408486031215612c0c575f5ffd5b83356001600160401b03811115612c21575f5ffd5b612c2d868287016129ab565b93505060208401356001600160401b03811115612c48575f5ffd5b8401601f81018613612c58575f5ffd5b80356001600160401b03811115612c6d575f5ffd5b866020828401011115612c7e575f5ffd5b939660209190910195509293505050565b634e487b7160e01b5f52602160045260245ffd5b60058110612cb357612cb3612c8f565b9052565b60408101612cc58285612ca3565b60048310612cd557612cd5612c8f565b8260208301529392505050565b5f60208284031215612cf2575f5ffd5b5035919050565b602081016115b18284612ca3565b634e487b7160e01b5f52604160045260245ffd5b60405161016081016001600160401b0381118282101715612d3e57612d3e612d07565b60405290565b5f82601f830112612d53575f5ffd5b81356001600160401b03811115612d6c57612d6c612d07565b604051601f8201601f19908116603f011681016001600160401b0381118282101715612d9a57612d9a612d07565b604052818152838201602001851015612db1575f5ffd5b816020850160208301375f918101602001919091529392505050565b5f5f60408385031215612dde575f5ffd5b8235612de981612a17565b915060208301356001600160401b03811115612e03575f5ffd5b612e0f85828601612d44565b9150509250929050565b80356001600160401b0381168114612a36575f5ffd5b5f60208284031215612e3f575f5ffd5b6114dc82612e19565b803563ffffffff81168114612a36575f5ffd5b5f6101608284031215612e6c575f5ffd5b612e74612d1b565b9050612e7f82612e19565b8152612e8d60208301612e19565b6020820152612e9e60408301612e48565b6040820152612eaf60608301612a2b565b6060820152612ec060808301612e19565b6080820152612ed160a08301612a2b565b60a0820152612ee260c08301612e19565b60c0820152612ef360e08301612a2b565b60e0820152612f056101008301612a2b565b61010082015261012082810135908201526101408201356001600160401b03811115612f2f575f5ffd5b612f3b84828501612d44565b6101408301525092915050565b5f60208284031215612f58575f5ffd5b81356001600160401b03811115612f6d575f5ffd5b611fbb84828501612e5b565b5f6115b13683612e5b565b5f60208284031215612f94575f5ffd5b6114dc82612e48565b5f60208284031215612fad575f5ffd5b5051919050565b6020808252602e908201527f496e697469616c697a61626c653a20636f6e747261637420697320616c72656160408201526d191e481a5b9a5d1a585b1a5e995960921b606082015260800190565b634e487b7160e01b5f52601160045260245ffd5b808201808211156115b1576115b1613002565b5f6001600160401b0382166001600160401b03810361304a5761304a613002565b60010192915050565b602081525f6114dc6020830184612ad4565b5f5f8335601e1984360301811261307a575f5ffd5b8301803591506001600160401b03821115613093575f5ffd5b6020019150368190038213156130a7575f5ffd5b9250929050565b634e487b7160e01b5f52601260045260245ffd5b5f5f8335601e198436030181126130d7575f5ffd5b83016020810192503590506001600160401b038111156130f5575f5ffd5b8036038213156130a7575f5ffd5b81835281816020850137505f828201602090810191909152601f909101601f19169091010190565b6131458261313883612e19565b6001600160401b03169052565b5f61315260208301612e19565b6001600160401b0316602084015261316c60408301612e48565b63ffffffff16604084015261318360608301612a2b565b6001600160a01b0316606084015261319d60808301612e19565b6001600160401b031660808401526131b760a08301612a2b565b6001600160a01b031660a08401526131d160c08301612e19565b6001600160401b031660c08401526131eb60e08301612a2b565b6001600160a01b031660e08401526132066101008301612a2b565b6001600160a01b0316610100840152610120828101359084015261322e6101408301836130c2565b61016061014086015261269161016086018284613103565b60a081525f61325860a083018561312b565b905063ffffffff835116602083015263ffffffff602084015116604083015263ffffffff60408401511660608301526060830151151560808301529392505050565b6020808252602c908201527f46756e6374696f6e206d7573742062652063616c6c6564207468726f7567682060408201526b19195b1959d85d1958d85b1b60a21b606082015260800190565b6020808252602c908201527f46756e6374696f6e206d7573742062652063616c6c6564207468726f7567682060408201526b6163746976652070726f787960a01b606082015260800190565b5f60208284031215613342575f5ffd5b81516114dc816129bc565b63ffffffff81811683821601908111156115b1576115b1613002565b604081525f61337b604083018561312b565b90508260208301529392505050565b60408152600d60408201526c5441494b4f5f4d45535341474560981b6060820152608060208201525f6114dc6080830184612ad4565b80356001600160e01b031981169060048410156133f1576001600160e01b0319600485900360031b81901b82161691505b5092915050565b634e487b7160e01b5f52600160045260245ffd5b6020808252602b908201527f496e697469616c697a61626c653a20636f6e7472616374206973206e6f74206960408201526a6e697469616c697a696e6760a81b606082015260800190565b6001600160401b038616815260018060a01b0385166020820152836040820152608060608201525f61348d608083018486613103565b979650505050505050565b5f602082840312156134a8575f5ffd5b81516114dc81612a17565b5f82516134c4818460208701612a87565b9190910192915050565b5f826134e857634e487b7160e01b5f52601260045260245ffd5b500490565b602081525f6114dc6020830184612aa956fe360894a13ba1a3210667c828492db98dca3e2076cc3735a920a3ca505d382bbc416464726573733a206c6f772d6c6576656c2064656c65676174652063616c6c206661696c6564a2646970667358221220d82c8f7c970681ddfa323cbf4b55420679e492c19c2d89df90bab3191259c47f64736f6c634300081e0033","linkReferences":{}},"methodIdentifiers":{"GAS_OVERHEAD()":"a730cdfb","GAS_RESERVE()":"be880c81","RELAYER_MAX_PROOF_BYTES()":"422770fa","acceptOwnership()":"79ba5097","context()":"d0496d6a","failMessage((uint64,uint64,uint32,address,uint64,address,uint64,address,address,uint256,bytes))":"913b16cb","getMessageMinGasLimit(uint256)":"7cbadfaa","hashMessage((uint64,uint64,uint32,address,uint64,address,uint64,address,address,uint256,bytes))":"c012fa77","impl()":"8abf6077","inNonReentrant()":"3075db56","init(address)":"19ab453c","init2()":"069489a2","isDestChainEnabled(uint64)":"8e3881a9","isMessageFailed((uint64,uint64,uint32,address,uint64,address,uint64,address,address,uint256,bytes),bytes)":"5862f6e1","isMessageReceived((uint64,uint64,uint32,address,uint64,address,uint64,address,address,uint256,bytes),bytes)":"b8acae0e","isMessageSent((uint64,uint64,uint32,address,uint64,address,uint64,address,address,uint256,bytes))":"60620c6b","messageStatus(bytes32)":"3c6cf473","nextMessageId()":"eefbf17e","owner()":"8da5cb5b","pause()":"8456cb59","paused()":"5c975abb","pendingOwner()":"e30c3978","processMessage((uint64,uint64,uint32,address,uint64,address,uint64,address,address,uint256,bytes),bytes)":"2035065e","proxiableUUID()":"52d1902d","recallMessage((uint64,uint64,uint32,address,uint64,address,uint64,address,address,uint256,bytes),bytes)":"9efc7a2e","renounceOwnership()":"715018a6","resolver()":"04f3bcec","retryMessage((uint64,uint64,uint32,address,uint64,address,uint64,address,address,uint256,bytes),bool)":"0432873c","sendMessage((uint64,uint64,uint32,address,uint64,address,uint64,address,address,uint256,bytes))":"1bdb0037","signalForFailedMessage(bytes32)":"d1aaa5df","signalService()":"62d09453","transferOwnership(address)":"f2fde38b","unpause()":"3f4ba83a","upgradeTo(address)":"3659cfe6","upgradeToAndCall(address,bytes)":"4f1ef286"},"storageLayout":{"storage":[{"astId":11586,"contract":"contracts/shared/bridge/Bridge.sol:Bridge","label":"_initialized","offset":0,"slot":"0","type":"t_uint8"},{"astId":11589,"contract":"contracts/shared/bridge/Bridge.sol:Bridge","label":"_initializing","offset":1,"slot":"0","type":"t_bool"},{"astId":16420,"contract":"contracts/shared/bridge/Bridge.sol:Bridge","label":"__gap","offset":0,"slot":"1","type":"t_array(t_uint256)50_storage"},{"astId":11331,"contract":"contracts/shared/bridge/Bridge.sol:Bridge","label":"_owner","offset":0,"slot":"51","type":"t_address"},{"astId":11451,"contract":"contracts/shared/bridge/Bridge.sol:Bridge","label":"__gap","offset":0,"slot":"52","type":"t_array(t_uint256)49_storage"},{"astId":11224,"contract":"contracts/shared/bridge/Bridge.sol:Bridge","label":"_pendingOwner","offset":0,"slot":"101","type":"t_address"},{"astId":11318,"contract":"contracts/shared/bridge/Bridge.sol:Bridge","label":"__gap","offset":0,"slot":"102","type":"t_array(t_uint256)49_storage"},{"astId":4316,"contract":"contracts/shared/bridge/Bridge.sol:Bridge","label":"__gapFromOldAddressResolver","offset":0,"slot":"151","type":"t_array(t_uint256)50_storage"},{"astId":4319,"contract":"contracts/shared/bridge/Bridge.sol:Bridge","label":"__reentry","offset":0,"slot":"201","type":"t_uint8"},{"astId":4321,"contract":"contracts/shared/bridge/Bridge.sol:Bridge","label":"__paused","offset":1,"slot":"201","type":"t_uint8"},{"astId":4325,"contract":"contracts/shared/bridge/Bridge.sol:Bridge","label":"__gap","offset":0,"slot":"202","type":"t_array(t_uint256)49_storage"},{"astId":2533,"contract":"contracts/shared/bridge/Bridge.sol:Bridge","label":"__reserved1","offset":0,"slot":"251","type":"t_uint64"},{"astId":2535,"contract":"contracts/shared/bridge/Bridge.sol:Bridge","label":"nextMessageId","offset":8,"slot":"251","type":"t_uint64"},{"astId":2541,"contract":"contracts/shared/bridge/Bridge.sol:Bridge","label":"messageStatus","offset":0,"slot":"252","type":"t_mapping(t_bytes32,t_enum(Status)4018)"},{"astId":2545,"contract":"contracts/shared/bridge/Bridge.sol:Bridge","label":"__ctx","offset":0,"slot":"253","type":"t_struct(Context)4053_storage"},{"astId":2548,"contract":"contracts/shared/bridge/Bridge.sol:Bridge","label":"__reserved2","offset":0,"slot":"255","type":"t_uint256"},{"astId":2551,"contract":"contracts/shared/bridge/Bridge.sol:Bridge","label":"__reserved3","offset":0,"slot":"256","type":"t_uint256"},{"astId":2555,"contract":"contracts/shared/bridge/Bridge.sol:Bridge","label":"__gap","offset":0,"slot":"257","type":"t_array(t_uint256)44_storage"}],"types":{"t_address":{"encoding":"inplace","label":"address","numberOfBytes":"20"},"t_array(t_uint256)44_storage":{"encoding":"inplace","label":"uint256[44]","numberOfBytes":"1408","base":"t_uint256"},"t_array(t_uint256)49_storage":{"encoding":"inplace","label":"uint256[49]","numberOfBytes":"1568","base":"t_uint256"},"t_array(t_uint256)50_storage":{"encoding":"inplace","label":"uint256[50]","numberOfBytes":"1600","base":"t_uint256"},"t_bool":{"encoding":"inplace","label":"bool","numberOfBytes":"1"},"t_bytes32":{"encoding":"inplace","label":"bytes32","numberOfBytes":"32"},"t_enum(Status)4018":{"encoding":"inplace","label":"enum IBridge.Status","numberOfBytes":"1"},"t_mapping(t_bytes32,t_enum(Status)4018)":{"encoding":"mapping","key":"t_bytes32","label":"mapping(bytes32 => enum IBridge.Status)","numberOfBytes":"32","value":"t_enum(Status)4018"},"t_struct(Context)4053_storage":{"encoding":"inplace","label":"struct IBridge.Context","numberOfBytes":"64","members":[{"astId":4048,"contract":"contracts/shared/bridge/Bridge.sol:Bridge","label":"msgHash","offset":0,"slot":"0","type":"t_bytes32"},{"astId":4050,"contract":"contracts/shared/bridge/Bridge.sol:Bridge","label":"from","offset":0,"slot":"1","type":"t_address"},{"astId":4052,"contract":"contracts/shared/bridge/Bridge.sol:Bridge","label":"srcChainId","offset":20,"slot":"1","type":"t_uint64"}]},"t_uint256":{"encoding":"inplace","label":"uint256","numberOfBytes":"32"},"t_uint64":{"encoding":"inplace","label":"uint64","numberOfBytes":"8"},"t_uint8":{"encoding":"inplace","label":"uint8","numberOfBytes":"1"}}},"id":9}