{
  "abi": [
    {
      "type": "constructor",
      "inputs": [
        {
          "name": "_authorized",
          "type": "address",
          "internalType": "address"
        },
        {
          "name": "_bondToken",
          "type": "address",
          "internalType": "address"
        },
        {
          "name": "_minBond",
          "type": "uint256",
          "internalType": "uint256"
        },
        {
          "name": "_withdrawalDelay",
          "type": "uint48",
          "internalType": "uint48"
        }
      ],
      "stateMutability": "nonpayable"
    },
    {
      "type": "function",
      "name": "acceptOwnership",
      "inputs": [],
      "outputs": [],
      "stateMutability": "nonpayable"
    },
    {
      "type": "function",
      "name": "authorized",
      "inputs": [],
      "outputs": [
        {
          "name": "",
          "type": "address",
          "internalType": "address"
        }
      ],
      "stateMutability": "view"
    },
    {
      "type": "function",
      "name": "bond",
      "inputs": [
        {
          "name": "account",
          "type": "address",
          "internalType": "address"
        }
      ],
      "outputs": [
        {
          "name": "balance",
          "type": "uint256",
          "internalType": "uint256"
        },
        {
          "name": "withdrawalRequestedAt",
          "type": "uint48",
          "internalType": "uint48"
        }
      ],
      "stateMutability": "view"
    },
    {
      "type": "function",
      "name": "bondToken",
      "inputs": [],
      "outputs": [
        {
          "name": "",
          "type": "address",
          "internalType": "contract IERC20"
        }
      ],
      "stateMutability": "view"
    },
    {
      "type": "function",
      "name": "cancelWithdrawal",
      "inputs": [],
      "outputs": [],
      "stateMutability": "nonpayable"
    },
    {
      "type": "function",
      "name": "creditBond",
      "inputs": [
        {
          "name": "_address",
          "type": "address",
          "internalType": "address"
        },
        {
          "name": "_bond",
          "type": "uint256",
          "internalType": "uint256"
        }
      ],
      "outputs": [],
      "stateMutability": "nonpayable"
    },
    {
      "type": "function",
      "name": "debitBond",
      "inputs": [
        {
          "name": "_address",
          "type": "address",
          "internalType": "address"
        },
        {
          "name": "_bond",
          "type": "uint256",
          "internalType": "uint256"
        }
      ],
      "outputs": [
        {
          "name": "amountDebited_",
          "type": "uint256",
          "internalType": "uint256"
        }
      ],
      "stateMutability": "nonpayable"
    },
    {
      "type": "function",
      "name": "deposit",
      "inputs": [
        {
          "name": "_amount",
          "type": "uint256",
          "internalType": "uint256"
        }
      ],
      "outputs": [],
      "stateMutability": "nonpayable"
    },
    {
      "type": "function",
      "name": "depositTo",
      "inputs": [
        {
          "name": "_recipient",
          "type": "address",
          "internalType": "address"
        },
        {
          "name": "_amount",
          "type": "uint256",
          "internalType": "uint256"
        }
      ],
      "outputs": [],
      "stateMutability": "nonpayable"
    },
    {
      "type": "function",
      "name": "getBondBalance",
      "inputs": [
        {
          "name": "_address",
          "type": "address",
          "internalType": "address"
        }
      ],
      "outputs": [
        {
          "name": "",
          "type": "uint256",
          "internalType": "uint256"
        }
      ],
      "stateMutability": "view"
    },
    {
      "type": "function",
      "name": "hasSufficientBond",
      "inputs": [
        {
          "name": "_address",
          "type": "address",
          "internalType": "address"
        },
        {
          "name": "_additionalBond",
          "type": "uint256",
          "internalType": "uint256"
        }
      ],
      "outputs": [
        {
          "name": "",
          "type": "bool",
          "internalType": "bool"
        }
      ],
      "stateMutability": "view"
    },
    {
      "type": "function",
      "name": "impl",
      "inputs": [],
      "outputs": [
        {
          "name": "",
          "type": "address",
          "internalType": "address"
        }
      ],
      "stateMutability": "view"
    },
    {
      "type": "function",
      "name": "inNonReentrant",
      "inputs": [],
      "outputs": [
        {
          "name": "",
          "type": "bool",
          "internalType": "bool"
        }
      ],
      "stateMutability": "view"
    },
    {
      "type": "function",
      "name": "init",
      "inputs": [
        {
          "name": "_owner",
          "type": "address",
          "internalType": "address"
        }
      ],
      "outputs": [],
      "stateMutability": "nonpayable"
    },
    {
      "type": "function",
      "name": "minBond",
      "inputs": [],
      "outputs": [
        {
          "name": "",
          "type": "uint256",
          "internalType": "uint256"
        }
      ],
      "stateMutability": "view"
    },
    {
      "type": "function",
      "name": "owner",
      "inputs": [],
      "outputs": [
        {
          "name": "",
          "type": "address",
          "internalType": "address"
        }
      ],
      "stateMutability": "view"
    },
    {
      "type": "function",
      "name": "pause",
      "inputs": [],
      "outputs": [],
      "stateMutability": "nonpayable"
    },
    {
      "type": "function",
      "name": "paused",
      "inputs": [],
      "outputs": [
        {
          "name": "",
          "type": "bool",
          "internalType": "bool"
        }
      ],
      "stateMutability": "view"
    },
    {
      "type": "function",
      "name": "pendingOwner",
      "inputs": [],
      "outputs": [
        {
          "name": "",
          "type": "address",
          "internalType": "address"
        }
      ],
      "stateMutability": "view"
    },
    {
      "type": "function",
      "name": "proxiableUUID",
      "inputs": [],
      "outputs": [
        {
          "name": "",
          "type": "bytes32",
          "internalType": "bytes32"
        }
      ],
      "stateMutability": "view"
    },
    {
      "type": "function",
      "name": "renounceOwnership",
      "inputs": [],
      "outputs": [],
      "stateMutability": "nonpayable"
    },
    {
      "type": "function",
      "name": "requestWithdrawal",
      "inputs": [],
      "outputs": [],
      "stateMutability": "nonpayable"
    },
    {
      "type": "function",
      "name": "resolver",
      "inputs": [],
      "outputs": [
        {
          "name": "",
          "type": "address",
          "internalType": "address"
        }
      ],
      "stateMutability": "view"
    },
    {
      "type": "function",
      "name": "transferOwnership",
      "inputs": [
        {
          "name": "newOwner",
          "type": "address",
          "internalType": "address"
        }
      ],
      "outputs": [],
      "stateMutability": "nonpayable"
    },
    {
      "type": "function",
      "name": "unpause",
      "inputs": [],
      "outputs": [],
      "stateMutability": "nonpayable"
    },
    {
      "type": "function",
      "name": "upgradeTo",
      "inputs": [
        {
          "name": "newImplementation",
          "type": "address",
          "internalType": "address"
        }
      ],
      "outputs": [],
      "stateMutability": "nonpayable"
    },
    {
      "type": "function",
      "name": "upgradeToAndCall",
      "inputs": [
        {
          "name": "newImplementation",
          "type": "address",
          "internalType": "address"
        },
        {
          "name": "data",
          "type": "bytes",
          "internalType": "bytes"
        }
      ],
      "outputs": [],
      "stateMutability": "payable"
    },
    {
      "type": "function",
      "name": "withdraw",
      "inputs": [
        {
          "name": "_to",
          "type": "address",
          "internalType": "address"
        },
        {
          "name": "_amount",
          "type": "uint256",
          "internalType": "uint256"
        }
      ],
      "outputs": [],
      "stateMutability": "nonpayable"
    },
    {
      "type": "function",
      "name": "withdrawalDelay",
      "inputs": [],
      "outputs": [
        {
          "name": "",
          "type": "uint48",
          "internalType": "uint48"
        }
      ],
      "stateMutability": "view"
    },
    {
      "type": "event",
      "name": "AdminChanged",
      "inputs": [
        {
          "name": "previousAdmin",
          "type": "address",
          "indexed": false,
          "internalType": "address"
        },
        {
          "name": "newAdmin",
          "type": "address",
          "indexed": false,
          "internalType": "address"
        }
      ],
      "anonymous": false
    },
    {
      "type": "event",
      "name": "BeaconUpgraded",
      "inputs": [
        {
          "name": "beacon",
          "type": "address",
          "indexed": true,
          "internalType": "address"
        }
      ],
      "anonymous": false
    },
    {
      "type": "event",
      "name": "BondCredited",
      "inputs": [
        {
          "name": "account",
          "type": "address",
          "indexed": true,
          "internalType": "address"
        },
        {
          "name": "amount",
          "type": "uint256",
          "indexed": false,
          "internalType": "uint256"
        }
      ],
      "anonymous": false
    },
    {
      "type": "event",
      "name": "BondDebited",
      "inputs": [
        {
          "name": "account",
          "type": "address",
          "indexed": true,
          "internalType": "address"
        },
        {
          "name": "amount",
          "type": "uint256",
          "indexed": false,
          "internalType": "uint256"
        }
      ],
      "anonymous": false
    },
    {
      "type": "event",
      "name": "BondDeposited",
      "inputs": [
        {
          "name": "account",
          "type": "address",
          "indexed": true,
          "internalType": "address"
        },
        {
          "name": "amount",
          "type": "uint256",
          "indexed": false,
          "internalType": "uint256"
        }
      ],
      "anonymous": false
    },
    {
      "type": "event",
      "name": "BondDepositedFor",
      "inputs": [
        {
          "name": "depositor",
          "type": "address",
          "indexed": true,
          "internalType": "address"
        },
        {
          "name": "recipient",
          "type": "address",
          "indexed": true,
          "internalType": "address"
        },
        {
          "name": "amount",
          "type": "uint256",
          "indexed": false,
          "internalType": "uint256"
        }
      ],
      "anonymous": false
    },
    {
      "type": "event",
      "name": "BondWithdrawn",
      "inputs": [
        {
          "name": "account",
          "type": "address",
          "indexed": true,
          "internalType": "address"
        },
        {
          "name": "amount",
          "type": "uint256",
          "indexed": false,
          "internalType": "uint256"
        }
      ],
      "anonymous": false
    },
    {
      "type": "event",
      "name": "Initialized",
      "inputs": [
        {
          "name": "version",
          "type": "uint8",
          "indexed": false,
          "internalType": "uint8"
        }
      ],
      "anonymous": false
    },
    {
      "type": "event",
      "name": "OwnershipTransferStarted",
      "inputs": [
        {
          "name": "previousOwner",
          "type": "address",
          "indexed": true,
          "internalType": "address"
        },
        {
          "name": "newOwner",
          "type": "address",
          "indexed": true,
          "internalType": "address"
        }
      ],
      "anonymous": false
    },
    {
      "type": "event",
      "name": "OwnershipTransferred",
      "inputs": [
        {
          "name": "previousOwner",
          "type": "address",
          "indexed": true,
          "internalType": "address"
        },
        {
          "name": "newOwner",
          "type": "address",
          "indexed": true,
          "internalType": "address"
        }
      ],
      "anonymous": false
    },
    {
      "type": "event",
      "name": "Paused",
      "inputs": [
        {
          "name": "account",
          "type": "address",
          "indexed": false,
          "internalType": "address"
        }
      ],
      "anonymous": false
    },
    {
      "type": "event",
      "name": "Unpaused",
      "inputs": [
        {
          "name": "account",
          "type": "address",
          "indexed": false,
          "internalType": "address"
        }
      ],
      "anonymous": false
    },
    {
      "type": "event",
      "name": "Upgraded",
      "inputs": [
        {
          "name": "implementation",
          "type": "address",
          "indexed": true,
          "internalType": "address"
        }
      ],
      "anonymous": false
    },
    {
      "type": "event",
      "name": "WithdrawalCancelled",
      "inputs": [
        {
          "name": "account",
          "type": "address",
          "indexed": true,
          "internalType": "address"
        }
      ],
      "anonymous": false
    },
    {
      "type": "event",
      "name": "WithdrawalRequested",
      "inputs": [
        {
          "name": "account",
          "type": "address",
          "indexed": true,
          "internalType": "address"
        },
        {
          "name": "withdrawableAt",
          "type": "uint256",
          "indexed": false,
          "internalType": "uint256"
        }
      ],
      "anonymous": false
    },
    {
      "type": "error",
      "name": "ACCESS_DENIED",
      "inputs": []
    },
    {
      "type": "error",
      "name": "FUNC_NOT_IMPLEMENTED",
      "inputs": []
    },
    {
      "type": "error",
      "name": "INVALID_PAUSE_STATUS",
      "inputs": []
    },
    {
      "type": "error",
      "name": "InsufficientBond",
      "inputs": []
    },
    {
      "type": "error",
      "name": "InvalidRecipient",
      "inputs": []
    },
    {
      "type": "error",
      "name": "MustMaintainMinBond",
      "inputs": []
    },
    {
      "type": "error",
      "name": "NoBondToWithdraw",
      "inputs": []
    },
    {
      "type": "error",
      "name": "NoWithdrawalRequested",
      "inputs": []
    },
    {
      "type": "error",
      "name": "REENTRANT_CALL",
      "inputs": []
    },
    {
      "type": "error",
      "name": "WithdrawalAlreadyRequested",
      "inputs": []
    },
    {
      "type": "error",
      "name": "ZERO_ADDRESS",
      "inputs": []
    },
    {
      "type": "error",
      "name": "ZERO_VALUE",
      "inputs": []
    }
  ],
  "bytecode": {
    "object": "0x61014060405230608052348015610014575f5ffd5b50604051611f18380380611f188339810160408190526100339161013f565b61003b610068565b6001600160a01b0393841660c0529190921660e0526101009190915265ffffffffffff1661012052610195565b5f54610100900460ff16156100d35760405162461bcd60e51b815260206004820152602760248201527f496e697469616c697a61626c653a20636f6e747261637420697320696e697469604482015266616c697a696e6760c81b606482015260840160405180910390fd5b5f5460ff90811614610122575f805460ff191660ff9081179091556040519081527f7f26b83ff96e1f2b6a682f133852f6798a09c465da95921460cefb38474024989060200160405180910390a15b565b80516001600160a01b038116811461013a575f5ffd5b919050565b5f5f5f5f60808587031215610152575f5ffd5b61015b85610124565b935061016960208601610124565b925060408501519150606085015165ffffffffffff8116811461018a575f5ffd5b939692955090935050565b60805160a05160c05160e0516101005161012051611ce16102375f395f818161048101528181610d700152610e6201525f81816103ea01528181610baa0152610ea301525f818161050901528181610c0f01528181610f49015261142f01525f81816103480152818161085e0152610c8201525f6101cc01525f818161079e015281816107de015281816109460152818161098601526109fd0152611ce15ff3fe6080604052600436106101ba575f3560e01c806379ba5097116100f2578063b6b55f2511610092578063e30c397811610062578063e30c39781461053f578063f2fde38b1461055c578063f3fef3a31461057b578063ffaad6a51461059a575f5ffd5b8063b6b55f25146104ba578063be32d1f4146104d9578063c28f4392146104f8578063dbaf21451461052b575f5ffd5b80638abf6077116100cd5780638abf6077146104205780638da5cb5b14610434578063a116e48614610451578063a7ab696114610470575f5ffd5b806379ba5097146103c5578063831518b7146103d95780638456cb591461040c575f5ffd5b8063391396de1161015d5780634f1ef286116101385780634f1ef2861461036a57806352d1902d1461037d5780635c975abb14610391578063715018a6146103b1575f5ffd5b8063391396de146103045780633f4ba83a14610323578063456cb7c614610337575f5ffd5b8063247ce85b11610198578063247ce85b1461023e5780633075db561461029457806333613cbe146102b85780633659cfe6146102e5575f5ffd5b806304f3bcec146101be57806319ab453c14610209578063226112801461022a575b5f5ffd5b3480156101c9575f5ffd5b507f00000000000000000000000000000000000000000000000000000000000000005b6040516001600160a01b0390911681526020015b60405180910390f35b348015610214575f5ffd5b50610228610223366004611954565b6105b9565b005b348015610235575f5ffd5b506102286106cb565b348015610249575f5ffd5b50610278610258366004611954565b60fb6020525f90815260409020805460019091015465ffffffffffff1682565b6040805192835265ffffffffffff909116602083015201610200565b34801561029f575f5ffd5b506102a861075d565b6040519015158152602001610200565b3480156102c3575f5ffd5b506102d76102d2366004611954565b610775565b604051908152602001610200565b3480156102f0575f5ffd5b506102286102ff366004611954565b610794565b34801561030f575f5ffd5b506102d761031e36600461196d565b61085b565b34801561032e575f5ffd5b506102286108e3565b348015610342575f5ffd5b506101ec7f000000000000000000000000000000000000000000000000000000000000000081565b6102286103783660046119a9565b61093c565b348015610388575f5ffd5b506102d76109f1565b34801561039c575f5ffd5b506102a860c954610100900460ff1660021490565b3480156103bc575f5ffd5b50610228610aa2565b3480156103d0575f5ffd5b50610228610ab3565b3480156103e4575f5ffd5b506102d77f000000000000000000000000000000000000000000000000000000000000000081565b348015610417575f5ffd5b50610228610b2a565b34801561042b575f5ffd5b506101ec610b7f565b34801561043f575f5ffd5b506033546001600160a01b03166101ec565b34801561045c575f5ffd5b506102a861046b36600461196d565b610b8d565b34801561047b575f5ffd5b506104a37f000000000000000000000000000000000000000000000000000000000000000081565b60405165ffffffffffff9091168152602001610200565b3480156104c5575f5ffd5b506102286104d4366004611a6d565b610bf0565b3480156104e4575f5ffd5b506102286104f336600461196d565b610c80565b348015610503575f5ffd5b506101ec7f000000000000000000000000000000000000000000000000000000000000000081565b348015610536575f5ffd5b50610228610cb9565b34801561054a575f5ffd5b506065546001600160a01b03166101ec565b348015610567575f5ffd5b50610228610576366004611954565b610db2565b348015610586575f5ffd5b5061022861059536600461196d565b610e23565b3480156105a5575f5ffd5b506102286105b436600461196d565b610f03565b5f54610100900460ff16158080156105d757505f54600160ff909116105b806105f05750303b1580156105f057505f5460ff166001145b6106585760405162461bcd60e51b815260206004820152602e60248201527f496e697469616c697a61626c653a20636f6e747261637420697320616c72656160448201526d191e481a5b9a5d1a585b1a5e995960921b60648201526084015b60405180910390fd5b5f805460ff191660011790558015610679575f805461ff0019166101001790555b61068282610fc5565b80156106c7575f805461ff0019169055604051600181527f7f26b83ff96e1f2b6a682f133852f6798a09c465da95921460cefb38474024989060200160405180910390a15b5050565b6106d3611023565b6106dd6002611052565b335f90815260fb60205260409020600181015465ffffffffffff16610715576040516387bdc6a960e01b815260040160405180910390fd5b60018101805465ffffffffffff1916905560405133907fc51fdb96728de385ec7859819e3997bc618362ef0dbca0ad051d856866cda3db905f90a25061075b6001611052565b565b5f600261076c60c95460ff1690565b60ff1614905090565b6001600160a01b0381165f90815260fb60205260408120545b92915050565b6001600160a01b037f00000000000000000000000000000000000000000000000000000000000000001630036107dc5760405162461bcd60e51b815260040161064f90611a84565b7f00000000000000000000000000000000000000000000000000000000000000006001600160a01b031661080e611068565b6001600160a01b0316146108345760405162461bcd60e51b815260040161064f90611ad0565b61083d81611083565b604080515f808252602082019092526108589183919061108b565b50565b5f7f0000000000000000000000000000000000000000000000000000000000000000610886816111f5565b610890848461121e565b915081156108dc57836001600160a01b03167f85f32beeaff2d0019a8d196f06790c9a652191759c46643311344fd38920423c836040516108d391815260200190565b60405180910390a25b5092915050565b6108eb611261565b6108ff60c9805461ff001916610100179055565b6040513381527f5db9ee0a495bf2e6ff9c91a7834c1ba4fdd244a5e8aa4e537bd38aeae4b073aa9060200160405180910390a161075b335f611292565b6001600160a01b037f00000000000000000000000000000000000000000000000000000000000000001630036109845760405162461bcd60e51b815260040161064f90611a84565b7f00000000000000000000000000000000000000000000000000000000000000006001600160a01b03166109b6611068565b6001600160a01b0316146109dc5760405162461bcd60e51b815260040161064f90611ad0565b6109e582611083565b6106c78282600161108b565b5f306001600160a01b037f00000000000000000000000000000000000000000000000000000000000000001614610a905760405162461bcd60e51b815260206004820152603860248201527f555550535570677261646561626c653a206d757374206e6f742062652063616c60448201527f6c6564207468726f7567682064656c656761746563616c6c0000000000000000606482015260840161064f565b505f516020611c655f395f51905f5290565b610aaa611296565b61075b5f6112f0565b60655433906001600160a01b03168114610b215760405162461bcd60e51b815260206004820152602960248201527f4f776e61626c6532537465703a2063616c6c6572206973206e6f7420746865206044820152683732bb9037bbb732b960b91b606482015260840161064f565b610858816112f0565b610b32611309565b60c9805461ff0019166102001790556040513381527f62e78cea01bee320cd4e420270b5ea74000d11b0c9f74754ebdbfc544b05a2589060200160405180910390a161075b336001611292565b5f610b88611068565b905090565b6001600160a01b0382165f90815260fb60205260408120610bce837f0000000000000000000000000000000000000000000000000000000000000000611b30565b815410801590610be85750600181015465ffffffffffff16155b949350505050565b610bf8611023565b610c026002611052565b610c376001600160a01b037f00000000000000000000000000000000000000000000000000000000000000001633308461133b565b610c4133826113ac565b60405181815233907f8ed8c6869618197b68315ade66e75ed3906c97b111fa3ab81e5760046825c7db9060200160405180910390a26108586001611052565b7f0000000000000000000000000000000000000000000000000000000000000000610caa816111f5565b610cb483836113ac565b505050565b610cc1611023565b610ccb6002611052565b335f90815260fb602052604090208054610cf857604051634555262b60e01b815260040160405180910390fd5b600181015465ffffffffffff1615610d235760405163fb52063b60e01b815260040160405180910390fd5b60018101805465ffffffffffff4281811665ffffffffffff199093169290921790925533917fe670e4e82118d22a1f9ee18920455ebc958bae26a90a05d31d3378788b1b0e4491610d96917f00000000000000000000000000000000000000000000000000000000000000001690611b30565b60405190815260200160405180910390a25061075b6001611052565b610dba611296565b606580546001600160a01b0383166001600160a01b03199091168117909155610deb6033546001600160a01b031690565b6001600160a01b03167f38d16b8cac22d99fc7c124b9cd0de2d3fa1faef420bfe791d8c362d765e2270060405160405180910390a350565b610e2b611023565b610e356002611052565b335f90815260fb60205260409020600181015465ffffffffffff161580610e9a57506001810154610e8f907f00000000000000000000000000000000000000000000000000000000000000009065ffffffffffff16611b43565b65ffffffffffff1642105b15610eed5780547f000000000000000000000000000000000000000000000000000000000000000090610ece908490611b61565b1015610eed576040516321f68cc160e21b815260040160405180910390fd5b610ef8338484611415565b506106c76001611052565b610f0b611023565b610f156002611052565b6001600160a01b038216610f3c57604051634e46966960e11b815260040160405180910390fd5b610f716001600160a01b037f00000000000000000000000000000000000000000000000000000000000000001633308461133b565b610f7b82826113ac565b6040518181526001600160a01b0383169033907fd723e7d201efb4985d2e17282a1a09e756601f0b4a724d36ea60913ecae4ae9a9060200160405180910390a36106c76001611052565b5f54610100900460ff16610feb5760405162461bcd60e51b815260040161064f90611b74565b610ff361149f565b6110116001600160a01b0382161561100b57816112f0565b336112f0565b5060c9805461ff001916610100179055565b600261103160c95460ff1690565b60ff160361075b5760405163dfc60d8560e01b815260040160405180910390fd5b60c9805460ff191660ff92909216919091179055565b5f516020611c655f395f51905f52546001600160a01b031690565b610858611296565b7f4910fdfa16fed3260ed0e7147f7cc6da11a60208b5b9406d12a635614ffd91435460ff16156110be57610cb4836114c5565b826001600160a01b03166352d1902d6040518163ffffffff1660e01b8152600401602060405180830381865afa925050508015611118575060408051601f3d908101601f1916820190925261111591810190611bbf565b60015b61117b5760405162461bcd60e51b815260206004820152602e60248201527f45524331393637557067726164653a206e657720696d706c656d656e7461746960448201526d6f6e206973206e6f74205555505360901b606482015260840161064f565b5f516020611c655f395f51905f5281146111e95760405162461bcd60e51b815260206004820152602960248201527f45524331393637557067726164653a20756e737570706f727465642070726f786044820152681a58589b195555525160ba1b606482015260840161064f565b50610cb4838383611560565b336001600160a01b03821614610858576040516395383ea160e01b815260040160405180910390fd5b6001600160a01b0382165f90815260fb60205260408120805483106112495780545f825591506108dc565b8054839250611259908390611b61565b905592915050565b61127560c954610100900460ff1660021490565b61075b5760405163bae6e2a960e01b815260040160405180910390fd5b6106c75b6033546001600160a01b0316331461075b5760405162461bcd60e51b815260206004820181905260248201527f4f776e61626c653a2063616c6c6572206973206e6f7420746865206f776e6572604482015260640161064f565b606580546001600160a01b031916905561085881611584565b61131d60c954610100900460ff1660021490565b1561075b5760405163bae6e2a960e01b815260040160405180910390fd5b6040516001600160a01b03808516602483015283166044820152606481018290526113a69085906323b872dd60e01b906084015b60408051601f198184030181529190526020810180516001600160e01b03166001600160e01b0319909316929092179091526115d5565b50505050565b6001600160a01b0382165f90815260fb6020526040902080546113d0908390611b30565b81556040518281526001600160a01b038416907f6de6fe586196fa05b73b973026c5fda3968a2933989bff3a0b6bd57644fab6069060200160405180910390a2505050565b5f611420848361121e565b90506114566001600160a01b037f00000000000000000000000000000000000000000000000000000000000000001684836116a8565b836001600160a01b03167f0d41118e36df44efb77a471fc49fb9c0be0406d802ef95520e9fbf606e65b4558260405161149191815260200190565b60405180910390a250505050565b5f54610100900460ff1661075b5760405162461bcd60e51b815260040161064f90611b74565b6001600160a01b0381163b6115325760405162461bcd60e51b815260206004820152602d60248201527f455243313936373a206e657720696d706c656d656e746174696f6e206973206e60448201526c1bdd08184818dbdb9d1c9858dd609a1b606482015260840161064f565b5f516020611c655f395f51905f5280546001600160a01b0319166001600160a01b0392909216919091179055565b611569836116d8565b5f825111806115755750805b15610cb4576113a68383611717565b603380546001600160a01b038381166001600160a01b0319831681179093556040519116919082907f8be0079c531659141344cd1fd0a4f28419497f9722a3daafe3b4186f6b6457e0905f90a35050565b5f611629826040518060400160405280602081526020017f5361666545524332303a206c6f772d6c6576656c2063616c6c206661696c6564815250856001600160a01b03166117439092919063ffffffff16565b905080515f14806116495750808060200190518101906116499190611bd6565b610cb45760405162461bcd60e51b815260206004820152602a60248201527f5361666545524332303a204552433230206f7065726174696f6e20646964206e6044820152691bdd081cdd58d8d9595960b21b606482015260840161064f565b6040516001600160a01b038316602482015260448101829052610cb490849063a9059cbb60e01b9060640161136f565b6116e1816114c5565b6040516001600160a01b038216907fbc7cd75a20ee27fd9adebab32041f755214dbc6bffa90cc0225b39da2e5c2d3b905f90a250565b606061173c8383604051806060016040528060278152602001611c8560279139611751565b9392505050565b6060610be884845f856117c5565b60605f5f856001600160a01b03168560405161176d9190611c17565b5f60405180830381855af49150503d805f81146117a5576040519150601f19603f3d011682016040523d82523d5f602084013e6117aa565b606091505b50915091506117bb8683838761189c565b9695505050505050565b6060824710156118265760405162461bcd60e51b815260206004820152602660248201527f416464726573733a20696e73756666696369656e742062616c616e636520666f6044820152651c8818d85b1b60d21b606482015260840161064f565b5f5f866001600160a01b031685876040516118419190611c17565b5f6040518083038185875af1925050503d805f811461187b576040519150601f19603f3d011682016040523d82523d5f602084013e611880565b606091505b50915091506118918783838761189c565b979650505050505050565b6060831561190a5782515f03611903576001600160a01b0385163b6119035760405162461bcd60e51b815260206004820152601d60248201527f416464726573733a2063616c6c20746f206e6f6e2d636f6e7472616374000000604482015260640161064f565b5081610be8565b610be8838381511561191f5781518083602001fd5b8060405162461bcd60e51b815260040161064f9190611c32565b80356001600160a01b038116811461194f575f5ffd5b919050565b5f60208284031215611964575f5ffd5b61173c82611939565b5f5f6040838503121561197e575f5ffd5b61198783611939565b946020939093013593505050565b634e487b7160e01b5f52604160045260245ffd5b5f5f604083850312156119ba575f5ffd5b6119c383611939565b9150602083013567ffffffffffffffff8111156119de575f5ffd5b8301601f810185136119ee575f5ffd5b803567ffffffffffffffff811115611a0857611a08611995565b604051601f8201601f19908116603f0116810167ffffffffffffffff81118282101715611a3757611a37611995565b604052818152828201602001871015611a4e575f5ffd5b816020840160208301375f602083830101528093505050509250929050565b5f60208284031215611a7d575f5ffd5b5035919050565b6020808252602c908201527f46756e6374696f6e206d7573742062652063616c6c6564207468726f7567682060408201526b19195b1959d85d1958d85b1b60a21b606082015260800190565b6020808252602c908201527f46756e6374696f6e206d7573742062652063616c6c6564207468726f7567682060408201526b6163746976652070726f787960a01b606082015260800190565b634e487b7160e01b5f52601160045260245ffd5b8082018082111561078e5761078e611b1c565b65ffffffffffff818116838216019081111561078e5761078e611b1c565b8181038181111561078e5761078e611b1c565b6020808252602b908201527f496e697469616c697a61626c653a20636f6e7472616374206973206e6f74206960408201526a6e697469616c697a696e6760a81b606082015260800190565b5f60208284031215611bcf575f5ffd5b5051919050565b5f60208284031215611be6575f5ffd5b8151801515811461173c575f5ffd5b5f5b83811015611c0f578181015183820152602001611bf7565b50505f910152565b5f8251611c28818460208701611bf5565b9190910192915050565b602081525f8251806020840152611c50816040850160208701611bf5565b601f01601f1916919091016040019291505056fe360894a13ba1a3210667c828492db98dca3e2076cc3735a920a3ca505d382bbc416464726573733a206c6f772d6c6576656c2064656c65676174652063616c6c206661696c6564a26469706673582212208631ea18b120dd608cae3a5d1f20512dffdc4afab9092db6c85c4d2fb0413eb864736f6c634300081e0033",
    "linkReferences": {}
  },
  "methodIdentifiers": {
    "acceptOwnership()": "79ba5097",
    "authorized()": "456cb7c6",
    "bond(address)": "247ce85b",
    "bondToken()": "c28f4392",
    "cancelWithdrawal()": "22611280",
    "creditBond(address,uint256)": "be32d1f4",
    "debitBond(address,uint256)": "391396de",
    "deposit(uint256)": "b6b55f25",
    "depositTo(address,uint256)": "ffaad6a5",
    "getBondBalance(address)": "33613cbe",
    "hasSufficientBond(address,uint256)": "a116e486",
    "impl()": "8abf6077",
    "inNonReentrant()": "3075db56",
    "init(address)": "19ab453c",
    "minBond()": "831518b7",
    "owner()": "8da5cb5b",
    "pause()": "8456cb59",
    "paused()": "5c975abb",
    "pendingOwner()": "e30c3978",
    "proxiableUUID()": "52d1902d",
    "renounceOwnership()": "715018a6",
    "requestWithdrawal()": "dbaf2145",
    "resolver()": "04f3bcec",
    "transferOwnership(address)": "f2fde38b",
    "unpause()": "3f4ba83a",
    "upgradeTo(address)": "3659cfe6",
    "upgradeToAndCall(address,bytes)": "4f1ef286",
    "withdraw(address,uint256)": "f3fef3a3",
    "withdrawalDelay()": "a7ab6961"
  },
  "storageLayout": {
    "storage": [
      {
        "astId": 11586,
        "contract": "contracts/layer2/core/BondManager.sol:BondManager",
        "label": "_initialized",
        "offset": 0,
        "slot": "0",
        "type": "t_uint8"
      },
      {
        "astId": 11589,
        "contract": "contracts/layer2/core/BondManager.sol:BondManager",
        "label": "_initializing",
        "offset": 1,
        "slot": "0",
        "type": "t_bool"
      },
      {
        "astId": 16420,
        "contract": "contracts/layer2/core/BondManager.sol:BondManager",
        "label": "__gap",
        "offset": 0,
        "slot": "1",
        "type": "t_array(t_uint256)50_storage"
      },
      {
        "astId": 11331,
        "contract": "contracts/layer2/core/BondManager.sol:BondManager",
        "label": "_owner",
        "offset": 0,
        "slot": "51",
        "type": "t_address"
      },
      {
        "astId": 11451,
        "contract": "contracts/layer2/core/BondManager.sol:BondManager",
        "label": "__gap",
        "offset": 0,
        "slot": "52",
        "type": "t_array(t_uint256)49_storage"
      },
      {
        "astId": 11224,
        "contract": "contracts/layer2/core/BondManager.sol:BondManager",
        "label": "_pendingOwner",
        "offset": 0,
        "slot": "101",
        "type": "t_address"
      },
      {
        "astId": 11318,
        "contract": "contracts/layer2/core/BondManager.sol:BondManager",
        "label": "__gap",
        "offset": 0,
        "slot": "102",
        "type": "t_array(t_uint256)49_storage"
      },
      {
        "astId": 4316,
        "contract": "contracts/layer2/core/BondManager.sol:BondManager",
        "label": "__gapFromOldAddressResolver",
        "offset": 0,
        "slot": "151",
        "type": "t_array(t_uint256)50_storage"
      },
      {
        "astId": 4319,
        "contract": "contracts/layer2/core/BondManager.sol:BondManager",
        "label": "__reentry",
        "offset": 0,
        "slot": "201",
        "type": "t_uint8"
      },
      {
        "astId": 4321,
        "contract": "contracts/layer2/core/BondManager.sol:BondManager",
        "label": "__paused",
        "offset": 1,
        "slot": "201",
        "type": "t_uint8"
      },
      {
        "astId": 4325,
        "contract": "contracts/layer2/core/BondManager.sol:BondManager",
        "label": "__gap",
        "offset": 0,
        "slot": "202",
        "type": "t_array(t_uint256)49_storage"
      },
      {
        "astId": 1542,
        "contract": "contracts/layer2/core/BondManager.sol:BondManager",
        "label": "bond",
        "offset": 0,
        "slot": "251",
        "type": "t_mapping(t_address,t_struct(Bond)2043_storage)"
      },
      {
        "astId": 1546,
        "contract": "contracts/layer2/core/BondManager.sol:BondManager",
        "label": "__gap",
        "offset": 0,
        "slot": "252",
        "type": "t_array(t_uint256)49_storage"
      }
    ],
    "types": {
      "t_address": {
        "encoding": "inplace",
        "label": "address",
        "numberOfBytes": "20"
      },
      "t_array(t_uint256)49_storage": {
        "encoding": "inplace",
        "label": "uint256[49]",
        "numberOfBytes": "1568",
        "base": "t_uint256"
      },
      "t_array(t_uint256)50_storage": {
        "encoding": "inplace",
        "label": "uint256[50]",
        "numberOfBytes": "1600",
        "base": "t_uint256"
      },
      "t_bool": {
        "encoding": "inplace",
        "label": "bool",
        "numberOfBytes": "1"
      },
      "t_mapping(t_address,t_struct(Bond)2043_storage)": {
        "encoding": "mapping",
        "key": "t_address",
        "label": "mapping(address => struct IBondManager.Bond)",
        "numberOfBytes": "32",
        "value": "t_struct(Bond)2043_storage"
      },
      "t_struct(Bond)2043_storage": {
        "encoding": "inplace",
        "label": "struct IBondManager.Bond",
        "numberOfBytes": "64",
        "members": [
          {
            "astId": 2040,
            "contract": "contracts/layer2/core/BondManager.sol:BondManager",
            "label": "balance",
            "offset": 0,
            "slot": "0",
            "type": "t_uint256"
          },
          {
            "astId": 2042,
            "contract": "contracts/layer2/core/BondManager.sol:BondManager",
            "label": "withdrawalRequestedAt",
            "offset": 0,
            "slot": "1",
            "type": "t_uint48"
          }
        ]
      },
      "t_uint256": {
        "encoding": "inplace",
        "label": "uint256",
        "numberOfBytes": "32"
      },
      "t_uint48": {
        "encoding": "inplace",
        "label": "uint48",
        "numberOfBytes": "6"
      },
      "t_uint8": {
        "encoding": "inplace",
        "label": "uint8",
        "numberOfBytes": "1"
      }
    }
  },
  "id": 4
}